:020000040800F2
:10000000180B002085180008590700085B07000836
:100010005F0700086307000867070008000000008A
:100020000000000000000000000000006B07000856
:100030006D070008000000006F0700087107000846
:100040009F1800089F1800089F1800089F180008B4
:100050009F1800089F1800089F1800089F180008A4
:100060009F1800089F1800089F1800089F18000894
:100070009F1800089F1800089F1800089F18000884
:100080009F1800089F1800089F1800089F18000874
:100090009F1800089F1800089F1800089F18000864
:1000A0009F1800089F1800089F1800089F18000854
:1000B0009F180008DD1200089F1800089F1800080C
:1000C0009F1800089F1800089F1800089F18000834
:1000D0009F1800089F1800089F1800089F18000824
:1000E0009F1800089F1800089F1800089F18000814
:1000F0009F1800089F1800089F1800089F18000804
:100100009F1800089F1800089F1800089F180008F3
:100110009F1800089F1800089F1800089F180008E3
:100120009F1800089F1800089F1800089F180008D3
:1001300000F002F800F03AF80AA090E8000C8244BF
:100140008344AAF10107DA4501D100F02FF8AFF29C
:10015000090EBAE80F0013F0010F18BFFB1A43F0A5
:10016000010318477C3A00009C3A0000103A24BF73
:1001700078C878C1FAD8520724BF30C830C144BF0C
:1001800004680C607047000000230024002500264E
:10019000103A28BF78C1FBD8520728BF30C148BFEA
:1001A0000B6070471FB51FBD10B510BD03F0DAF925
:1001B0001146FFF7F7FF00F052F903F0F8F903B426
:1001C000FFF7F2FF03BC03F0FDF9000010B5044691
:1001D000012C67D1FA480078401CF949087008469C
:1001E0000078032816DBF7A20021084600F04AFE3B
:1001F000F9A21021002000F045FEFCA220210020E1
:1002000000F040FEFEA23021002000F03BFE002066
:10021000EB490870EA480078012802D0022840D152
:100220001FE0FCA20021084600F02CFEF9A21021DC
:10023000002000F027FEF7A22021002000F022FE7F
:10024000F4A23021002000F01DFEF6A20021084695
:1002500000F018FEF64802881021282000F052FF16
:100260001FE0ECA20021084600F00CFEE9A21021DC
:10027000002000F007FEE7A22021002000F002FE8F
:10028000E4A23021002000F0FDFDEAA20021084692
:1002900000F0F8FDEA4802881021282000F032FF23
:1002A00000BF00BF022C27D1C5480078012802D02A
:1002B000022820D10FE0DE480088632804DADC48F9
:1002C0000088401CDA490880D9480288102128207B
:1002D00000F018FF0FE0DA480088632804DAD848F5
:1002E0000088401CD6490880D54802881021282063
:1002F00000F008FF00BF00BF032C27D1B0480078F2
:10030000012802D0022820D10FE0C9480088002827
:1003100004DDC7480088401EC5490880C4480288DB
:100320001021282000F0EEFE0FE0C54800880028CC
:1003300004DDC3480088401EC1490880C0480288C7
:100340001021282000F0DEFE00BF00BF10BD10B558
:10035000BC48007820B1012805D002283AD11EE01F
:1003600001F0F5F836E0B8480068C82814D2B7485C
:100370000078401CB549087008460078082806DB5C
:1003800000200870B0480068401CAF490860AF48C2
:10039000007800F0E0FF01E001F0D9F81AE0AA4887
:1003A0000068A0B1A9480078401CA8490870084618
:1003B0000078082806DB00200870A3480068401E6B
:1003C000A1490860A148007801F043F801E001F07C
:1003D000BEF800BF00BF9E48007820B1012805D0BC
:1003E00002283AD11EE001F0CBF936E099480068C6
:1003F000C82814D298480078401C974908700846CD
:100400000078082806DB0020087092480068401C2D
:10041000904908609048007801F0A6F801E001F0EA
:10042000AFF91AE08B480068A0B18B480078401CF7
:100430008949087008460078082806DB0020087003
:1004400084480068401E834908608348007801F0B2
:1004500009F901E001F094F900BF00BF10BD01F0FF
:10046000A1F901F009FA0121092001F047FD01215C
:100470007A4801F058FB4FF4FA7001F0D0F9AFF26E
:10048000311000F040FF00F09AFA00F0D6FA00F0C8
:1004900023FC4CA20021084600F0F4FC4EA21021DF
:1004A000002000F0EFFC51A22021002000F0EAFC27
:1004B00053A23021002000F0E5FC3DE1AFF2F32033
:1004C00000F048FA3E480078002877D100F02DFB74
:1004D000C0F58050642100FB01F4E01704EB1050DC
:1004E000C0F30F305E490880012000F01EFBC0F50C
:1004F0008050642100FB01F4E01704EB1050C0F3BE
:100500000F3058490880022000F00FFBC0F58050E2
:10051000642100FB01F4E01704EB1050C0F30F302E
:1005200051490880032000F000FBC0F58050642191
:1005300000FB01F4E01704EB1050C0F30F304B49FF
:100540000880042000F0F1FA642100FB01F4E017B8
:1005500004EB1050001346490880414802880021EE
:10056000182000F0CFFD3F4802880021502000F005
:10057000C9FD3D4802881021182000F0C3FD3B480A
:1005800002881021502000F0BDFD3948028820214A
:10059000282000F0B7FD364800882949098888429C
:1005A00074DC2F48008822490988884275DA2D4872
:1005B00000881F49098888426FDA5BE0B9E065E08E
:1005C0001D000020D7F33A30303020D3D23A3030FB
:1005D0003020202000000000C9CF3A30303020CF3A
:1005E000C23A30303020202000000000D3EAB5CEDF
:1005F0003A30303020202020202020200000000031
:1006000020202020202020202020202020202020EA
:10061000000000002020202020202020202020205A
:1006200020202000B9E2D5D5C9E8D6C33A000000A1
:1006300000000020D3EAB5CEC9E8D6C33A000000D6
:100640000200002014000020100000201E000020E6
:100650001C000020180000201F00002000023000B5
:1006600006000020080000200A0000200C000020E6
:100670000E000020314800883149098888420CDA90
:10068000304800882E490988884206DA00202E4921
:1006900008702E4908704CE0FFE728480088294977
:1006A000098888420ADA2748008824490988401ABC
:1006B0000A2803DD01202549087015E01F4800883D
:1006C0002049098888420ADD1C4800881D4909889C
:1006D000401A0A2803DD02201C49087004E00020AB
:1006E000194908701949087019480088194909887A
:1006F00088420ADA1748008815490988401A0A28EA
:1007000003DD01201049087013E0114800881149E9
:10071000098888420ADD0E4800880E490988401A77
:100720000A2803DD02200849087002E0002006497B
:100730000870642001F073F8C0E600000A00002091
:10074000000000200C000020140000201C000020ED
:100750000600002008000020704700BFFEE700BF31
:10076000FEE700BFFEE700BFFEE770477047704737
:10077000704700000CB50020019000906C480068A4
:1007800040F480306A49086000BF6948006800F49E
:10079000003000900198401C0190009818B9019811
:1007A000B0F5A06FF1D16248006800F4003010B1DC
:1007B0000120009001E0002000900098012843D122
:1007C0005C48006840F010005A490860084600681C
:1007D00020F0030008600846006840F0020008604E
:1007E0005348406852494860084640684860084697
:1007F000406840F4806048600846406820F47C10FF
:1008000048600846406840F4E810486008460068C0
:1008100040F08070086000BF4548006800F000703C
:100820000028F9D04248406820F003004049486061
:100830000846406840F00200486000BF3C484068FD
:1008400000F00C000828F9D10CBD10B5FFF792FF9D
:1008500010BD10B53648006840F00100344908600A
:1008600008464068344908403149486008460068F5
:10087000324908402E4908600846006820F480206C
:1008800008600846406820F4FE0048604FF41F00EE
:100890008860FFF7DAFF4FF000602949086010BD5B
:1008A00010B5002100200022214B5B6803F00C01F1
:1008B00021B1042906D0082928D107E0214B224C78
:1008C000236027E01F4B204C236023E0184B5B681C
:1008D00003F47010164B5B6803F48032022303EBC1
:1008E000904022B9194B4343174C23600DE0104B45
:1008F0005B6803F4003323B1144B4343124C236071
:1009000003E0104B4343104C236003E00D4B0E4CAF
:10091000236000BF00BF064B5B68C3F303130C4C9E
:10092000E15C094B1B68CB40074C236010BD000005
:1009300000100240002002400000FFF8FFFFF6FE1A
:1009400008ED00E000127A002000002000093D00C0
:100950002400002070B50546FE48006838B1FD4807
:10096000001D006818B1FB480830006810BB052066
:1009700000F055FFF748006828B9012400BFF5488A
:1009800000680028FBD0F348001D006830B902243D
:1009900000BFF048001D00680028FAD0ED4808307C
:1009A000006840B9032400BFEA4808300068002806
:1009B000FAD000E015242046A847204670BD08B5AF
:1009C00001210C2001F09AFA0121E34801F0ABF873
:1009D0004FF4E040ADF8000048208DF80300694670
:1009E000DE4800F0CFFF08BD00B58BB001210846FE
:1009F00001F077FADA4802F061FADA480090DA4852
:100A0000019000200290322003900020049080206A
:100A1000059040000690800007902020089000027A
:100A2000099000200A906946CD4802F0E9FA0121B8
:100A3000CB4802F010FB0BB000BD00B587B0012120
:100A4000102001F05BFA1F20ADF8180000208DF88F
:100A50001B0006A9C54800F095FFFFF7C5FF01215F
:100A6000480201F04BFA4FF4004001F0ABF90020CE
:100A7000019001208DF808008DF809004FF46020E6
:100A800003900020049005208DF8140001A9B548BA
:100A90004C3802F064FB052301220021B1484C3898
:100AA00002F0F5FB052302220121AE484C3802F08A
:100AB000EEFB052303220221AA484C3802F0E7FB93
:100AC000052304220321A7484C3802F0E0FB05234C
:100AD0001A460421A3484C3802F0D9FB0121A14851
:100AE0004C3802F073FB01219E484C3802F063FB46
:100AF0009C484C3802F081FB00BF9A484C3802F009
:100B000081FB0028F9D197484C3802F085FB00BFE3
:100B100094484C3802F085FB0028F9D10121914816
:100B20004C3802F088FB07B000BD10B50246002328
:100B3000002109E001EB81008B4C04EB400030F810
:100B400012000344481CC1B20A29F3DB0A20B3FB9C
:100B5000F0F080B210BD70B50446082519E004F02D
:100B6000800028B14FF480717C4800F0B8FF04E0A9
:100B70004FF48071794800F0B4FF4FF4007177486A
:100B800000F0ADFF4FF40071744800F0AAFF60065A
:100B9000040E2800A5F10101CDB2E0D170BD10B561
:100BA0004FF480716D4800F09AFF4FF400716B486C
:100BB00000F095FF4FF40071684800F092FF10BDFF
:100BC00010B54FF48071654800F08BFF4FF4007151
:100BD000624800F084FF4FF40071604800F081FF2C
:100BE00010BD10B54FF480715C4800F07AFF4FF4EF
:100BF00000715A4800F073FF4FF40071574800F03D
:100C000070FF7820FFF7A7FFFFF7C9FF10BD10B5F1
:100C10004FF40071514800F062FF4FF480714F486B
:100C200000F05FFF4FF480714C4800F058FF10BD9A
:100C300010B50446FFF7D5FF0020FFF78CFFFFF744
:100C4000AEFF2046FFF787FFFFF7A9FFFFF7DFFFA3
:100C500010BD10B50446FFF7C4FF4020FFF77BFF2F
:100C6000FFF79DFF2046FFF776FFFFF798FFFFF79E
:100C7000CEFF10BD70B5002416E02220FFF7D8FF8C
:100C80002046FFF7D5FF0720FFF7D2FF002507E03A
:100C9000374901EBC501085DFFF7DBFF681CC5B2F2
:100CA000802DF5DB601CC4B2082CE6DB70BD70B58E
:100CB00000240CE0002506E000202D4901EBC501D1
:100CC0000855681CC5B2802DF6DB601CC4B2082C28
:100CD000F0DBFFF7CFFF70BD08B50121082001F060
:100CE0000DF94FF44070ADF8000003208DF80200BC
:100CF00010208DF803006946184800F043FE4FF4B9
:100D0000967000F08CFDAE20FFF792FF0020FFF7F9
:100D10008FFF1020FFF78CFF4020FFF789FFB020E6
:100D2000FFF786FF8120FFF783FFFF20FFF780FF9B
:100D3000A120FFF77DFFA620FFF77AFFC020FFF775
:100D400077FFA820FFF774FF3F20FFF771FFD32044
:100D500010E000003081214200023000000C014010
:100D6000080002404C2401405000002000080140CF
:100D7000B4000020FFF75CFF0020FFF759FFD520EB
:100D8000FFF756FF8020FFF753FFD920FFF750FFF2
:100D9000F120FFF74DFFDA20FFF74AFF1220FFF79F
:100DA00047FFDB20FFF744FF4020FFF741FF8D2086
:100DB000FFF73EFF1420FFF73BFFAF20FFF738FFA0
:100DC000FFF775FF08BD0146002007E0FE4A125CF0
:100DD0000B789A4200D105E0421CD0B2FA4A125C6C
:100DE000002AF3D100BF7047024600210DE0F7480A
:100DF000405C1378984206D1F44B481C185C537839
:100E0000984200D105E0881CC1B2F048405C00283F
:100E1000EDD100BF0B4601EBD370C0F34700704724
:100E2000F0B5144600267F2801DC3F2900DDF0BD27
:100E30000B46CF1701EB5777FF10C7F10707FAB240
:100E4000CF1701EB5777FF10A1EBC707FDB2C5F134
:100E500007070123BB40DEB24CB1DD4B03EBC003FF
:100E60009B5C3343DA4F07EBC007BB5408E0D84B19
:100E700003EBC0039B5CB343D54F07EBC007BB54E8
:100E800000BFD4E72DE9F84F83460C461746A2462B
:100E9000002679E0B85D802839DAB819FFF793FFAA
:100EA0000090002530E0CB49009801EB001010F8CD
:100EB00005804FF0000921E008F0800028B10122F0
:100EC00021465846FFF7ACFF04E000222146584671
:100ED000FFF7A6FF4FEA48604FEA1068601CC4B2F3
:100EE000A4EB0A00102805D154460BF1010000F0D4
:100EF000FF0B06E009F1010000F0FF09B9F1080F4E
:100F0000DADB00BF681CC5B2102DCCDB3AE0B819A3
:100F1000FFF76AFF0090002530E0AF49009801EB31
:100F2000401010F805804FF0000921E008F0800023
:100F300028B1012221465846FFF772FF04E0002243
:100F400021465846FFF76CFF4FEA48604FEA1068A9
:100F5000601CC4B2A4EB0A00102805D154460BF162
:100F6000010000F0FF0B06E009F1010000F0FF09AD
:100F7000B9F1080FDADB00BF681CC5B2202DCCDB4D
:100F8000701CC6B2701CC6B2B85D002882D1FFF7D3
:100F900071FEBDE8F88F2DE9F04706460C4617466E
:100FA000A24600252DE08B4800EB071010F80580C5
:100FB0004FF000091FE008F0800028B1012221460F
:100FC0003046FFF72DFF04E0002221463046FFF7B0
:100FD00027FF4FEA48604FEA1068601CC4B2A4EBD8
:100FE0000A00102803D15446701CC6B206E009F16D
:100FF000010000F0FF09B9F1080FDCDB00BF681C3D
:10100000C5B2102DCFDBBDE8F0872DE9F0410446D5
:101010000E4615464FF47A70B5FBF0F00A21B0FB8E
:10102000F1F201FB12073A4631462046FFF7B3FFC3
:1010300004F10801C8B269A23146FFF723FF64201A
:10104000B5FBF0F00A21B0FBF1F201FB120704F14D
:101050001001C8B23A463146FFF79DFF0A20B5FBA2
:10106000F0F00A21B0FBF1F201FB120704F11801C4
:10107000C8B23A463146FFF78EFF0A20B5FBF0F1C1
:1010800000FB115704F12001C8B23A463146FFF780
:1010900082FFFFF7EFFDBDE8F0812DE9F041054645
:1010A0000E4614460A20B4FBF0F100FB11473A4605
:1010B00031462846FFF76FFFFFF7DCFDBDE8F08102
:1010C0002DE9F04105460E4614460A20B4FBF0F027
:1010D0000A21B0FBF1F201FB12073A4631462846DD
:1010E000FFF759FF0A20B4FBF0F100FB114705F1AF
:1010F0000801C8B23A463146FFF74DFFFFF7BAFD87
:10110000BDE8F0812DE9F04105460E461446642005
:10111000B4FBF0F00A21B0FBF1F201FB12073A46F2
:1011200031462846FFF737FF0A20B4FBF0F00A21CA
:10113000B0FBF1F201FB120705F10801C8B23A4613
:101140003146FFF728FF0A20B4FBF0F100FB1147FE
:1011500005F11001C8B23A463146FFF71CFFFFF710
:1011600089FDBDE8F0812DE9F04105460E461446A3
:101170004FF47A70B4FBF0F00A21B0FBF1F201FBFE
:1011800012073A4631462846FFF705FF6420B4FBB4
:10119000F0F00A21B0FBF1F201FB120705F10801A2
:1011A000C8B23A463146FFF7F6FE0A20B4FBF0F02B
:1011B0000A21B0FBF1F201FB120705F11001C8B2E0
:1011C0003A4631460CE00000D23500088A3A000861
:1011D000B40000201A3600089F3A00082E000000D4
:1011E000FFF7D9FE0A20B4FBF0F100FB114705F12F
:1011F0001801C8B23A463146FFF7CDFEFFF73AFD77
:10120000BDE8F0812DE9F04104460E461546642004
:10121000B5FBF0F00A21B0FBF1F201FB12073A46F0
:1012200031462046FFF7B7FE0A20B5FBF0F00A2151
:10123000B0FBF1F201FB120704F10801C8B23A4613
:101240003146FFF7A8FE04F11001C8B21022314662
:10125000FFF7A1FE0A20B5FBF0F100FB115704F1E6
:101260001801C8B23A463146FFF795FEFFF702FD76
:10127000BDE8F0817FB506460C46154601210220E7
:1012800000F049FE701E80B2ADF80800601E80B20A
:10129000ADF804000020ADF80A00ADF8060001A981
:1012A000FB4800F0D1FF01221146F94801F043FB51
:1012B0001D208DF8000000208DF8010003208DF81E
:1012C000020001208DF80300684600F080FEF1481E
:1012D00005600121EE4801F013FB7FBD10B501212F
:1012E000EB4801F0D6FD68B10121E94801F0E2FDCB
:1012F0000121E74801F0DEFDE648006810B1E5484D
:101300000068804710BD38B504460121042000F074
:10131000F5FD4FF4F070ADF8000010208DF80300DB
:1013200003208DF802006946DB4800F02BFB1B20F0
:10133000ADF8000010208DF8030003208DF80200A6
:101340006946D64800F01EFB22464FF4E15150207A
:10135000FFF790FF38BD082879D2DFE800F00412CB
:10136000202F3E4D5B690121CD4A11600021CD4AFD
:10137000C2F89811CA4A08321160CA4AC2F8A011CC
:1013800065E00121C64A1160C64AC2F898110021E1
:10139000C34A08321160C34AC2F8A01157E00021C5
:1013A000BF4A11600121BF4AC2F898110021BC4A0E
:1013B00008321160BB4AC2F8A01148E00021B84AC7
:1013C00011600121B74AC2F89811B54A083211607C
:1013D0000021B44AC2F8A01139E00021B04A1160DE
:1013E000B04AC2F898110121AD4A083211600021BB
:1013F000AC4AC2F8A0112AE00021A94A1160A94A0A
:10140000C2F898110121A64A08321160A54AC2F813
:10141000A0111CE00021A24A1160A24AC2F8981152
:101420009F4A0832116001219E4AC2F8A0110EE0C5
:1014300001219B4A116000219A4AC2F89811984AEA
:10144000083211600121974AC2F8A01100BF00BF05
:101450007047082879D2DFE800F0695B4D3E2F2005
:10146000120401218E4A116000218E4AC2F898119F
:101470008B4A083211608B4AC2F8A01165E0012145
:10148000874A1160874AC2F898110021844A0832BD
:101490001160844AC2F8A01157E00021804A11600F
:1014A0000121804AC2F8981100217D4A083211605A
:1014B0007C4AC2F8A01148E00021794A116001215C
:1014C000784AC2F89811764A083211600021754AAC
:1014D000C2F8A01139E00021714A1160714AC2F8C6
:1014E000981101216E4A0832116000216D4AC2F83C
:1014F000A0112AE000216A4A11606A4AC2F89811D4
:101500000121674A08321160664AC2F8A0111CE046
:101510000021634A1160634AC2F89811604A083298
:10152000116001215F4AC2F8A0110EE001215C4A5E
:10153000116000215B4AC2F89811594A08321160C3
:101540000121584AC2F8A01100BF00BF7047002017
:10155000534908605349C1F898015149083108605E
:101560005049C1F8A0017047082879D2DFE800F09F
:101570000412202F3E4D5B6901214B4A116000216E
:101580004A4AC2F88411484A0C321160474AC2F8EC
:10159000901165E00121444A1160444AC2F8841167
:1015A0000021414A0C321160404AC2F8901157E0C4
:1015B00000213D4A116001213C4AC2F884110021FA
:1015C000394A0C321160394AC2F8901148E00021C2
:1015D000354A11600121354AC2F88411324A0C3271
:1015E00011600021314AC2F8901139E000212E4AE1
:1015F00011602E4AC2F8841101212B4A0C3211606D
:1016000000212A4AC2F890112AE00021264A1160DE
:10161000264AC2F884110121234A0C321160234A60
:10162000C2F890111CE000211F4A11601F4AC2F845
:1016300084111D4A0C32116001211C4AC2F890111C
:101640000EE00121184A11600021184AC2F88411E5
:10165000154A0C3211600121144AC2F8901100BFE2
:1016600000BF7047082812D2DFE800F0796B5D4EAA
:101670003F30220401210C4A116000210B4AC2F8BC
:101680008411094A0C321160084AC2F8901175E0C1
:10169000000400403400002000080140000C01401C
:1016A0009401214200002142808121420080214298
:1016B00001213A4A11603A4AC2F884110021374A9E
:1016C0000C321160364AC2F8901157E00021334ABB
:1016D00011600121324AC2F8841100212F4A0C32D4
:1016E00011602F4AC2F8901148E000212B4A116086
:1016F00001212B4AC2F88411284A0C3211600021C2
:10170000274AC2F8901139E00021244A1160244A86
:10171000C2F884110121214A0C3211600021204AB3
:10172000C2F890112AE000211C4A11601C4AC2F83C
:1017300084110121194A0C321160194AC2F8901122
:101740001CE00021154A1160154AC2F88411134AA1
:101750000C3211600121124AC2F890110EE00121F1
:101760000E4A116000210E4AC2F884110B4A0C3255
:10177000116001210A4AC2F8901100BF00BF7047F2
:101780000020064908600649C1F8840103490C316C
:1017900008600349C1F89001704700008081214230
:1017A0000080214210B56FF0040000F05AFC2E4872
:1017B00000682E49B0FBF1F02D490870084600780A
:1017C00000EB4001C1EBC0104FF6FF7101EAC00011
:1017D0002849088010BD0146254A12784A434FF037
:1017E000E0235A6100229A611A46126942F001020E
:1017F0001A6100BF4FF0E022106900F001021AB137
:1018000000F48032002AF5D04FF0E022126922F075
:1018100001024FF0E0231A6100229A6170470146ED
:10182000144A12884A434FF0E0235A6100229A6119
:101830001A46126942F001021A6100BF4FF0E0221D
:10184000106900F001021AB100F48032002AF5D0CC
:101850004FF0E022126922F001024FF0E0231A61FA
:1018600000229A61704700002000002000127A00D8
:10187000380000203A00002010B54FF4A06000F0BE
:10188000A1FB10BD0948804709480047FEE7FEE775
:10189000FEE7FEE7FEE7FEE7FEE7FEE7FEE7FEE720
:1018A00004480549054A064B7047000053080008E4
:1018B0003101000818050020180B0020180700202F
:1018C0001807002010B50446CC48844208D10121F5
:1018D000042000F02DFB0021042000F029FB46E04D
:1018E000C748844208D10121082000F021FB0021D3
:1018F000082000F01DFB3AE0C248844208D10121D3
:10190000102000F015FB0021102000F011FB2EE04C
:10191000BD48844208D10121202000F009FB0021AC
:10192000202000F005FB22E0B848844208D10121C4
:10193000402000F0FDFA0021402000F0F9FA16E006
:10194000B348844208D10121802000F0F1FA00213F
:10195000802000F0EDFA0AE0AE48844207D1012170
:10196000801500F0E5FA0021A01500F0E1FA10BDA5
:1019700010B50121084600F0DBFA0021012000F03B
:10198000D7FA10BD2DE9F0410246002500260020BF
:1019900000230024002791F803C00CF00F0591F8F4
:1019A00003C00CF0100CBCF1000F03D091F802C082
:1019B0004CEA050591F800C0BCF1000F31D0146865
:1019C00000202BE04FF0010C0CFA00F3B1F800C03E
:1019D0000CEA03069E4220D183004FF00F0C0CFA54
:1019E00003F7BC4305FA03FC4CEA040491F803C076
:1019F000BCF1280F06D14FF0010C0CFA00FCC2F824
:101A000014C00AE091F803C0BCF1480F05D14FF0B3
:101A1000010C0CFA00FCC2F810C0401C0828D1D3FD
:101A20001460B1F800C0BCF1FF0F34DD5468002031
:101A30002EE000F1080C4FF0010808FA0CF3B1F8A1
:101A400000C00CEA03069E4221D183004FF00F0C28
:101A50000CFA03F7BC4305FA03FC4CEA040491F8C2
:101A600003C0BCF1280F05D100F1080C08FA0CF8EE
:101A7000C2F8148091F803C0BCF1480F07D100F1FF
:101A8000080C4FF0010808FA0CF8C2F81080401C4E
:101A90000828CED35460BDE8F0814FF6FF71018075
:101AA000022181700421C1707047024600209368B2
:101AB0000B400BB1012000E0002070470146886810
:101AC00080B2704702460020D3680B400BB1012062
:101AD00000E0002070470146C86880B2704701618D
:101AE0007047416170470AB1016100E04161704790
:101AF000C16070474FF480320A4382618161826124
:101B000082698269704702460020434B18684FF68D
:101B10008073184040EA021008433F4B186070473A
:101B20003E49C8617047F0B50A46002300240021F1
:101B3000002500F00046B6F1004F02D1364EF169A3
:101B400001E0354E7168C0F3034583B200F44016DE
:101B5000B6F5401F08D121F070612F4E766826F04F
:101B600070662D4F7E6012E000F48016B6F5801F7F
:101B700006D1032606FA05F4A14341F0706106E0A0
:101B8000460D360103FA06F6B14341F0706122B109
:101B9000460D360103FA06F6314300F00046B6F171
:101BA000004F02D11C4EF16101E01B4E7160F0BD8F
:101BB00030B500228B071C0F0F2303FA04F2164BDB
:101BC00008338C1053F824309343134C08348D1091
:101BD00044F8253023468C1053F824308C07240F0A
:101BE00000FA04F423430C4C08348D1044F82530DB
:101BF00030BD0A49DC310860704700000008014030
:101C0000000C014000100140001401400018014088
:101C1000001C014000200140000001400000204263
:101C2000DF48006840F00100DD4908600846406870
:101C3000DC490840DA49486008460068DA4908404B
:101C4000D74908600846006820F4802008600846EC
:101C5000406820F4FE0048604FF41F008860704721
:101C6000CF49096821F48031CD4A116011460968D5
:101C700021F480211160B0F5803F03D0B0F5802FB2
:101C80000ED106E0C649096841F48031C44A1160AA
:101C900007E0C349096841F4A021C14A116000E08E
:101CA00000BF00BF704710B501460022002300208E
:101CB0004A11012A02D1BA4C236806E0022A02D155
:101CC000B74C236A01E0B64C636A01F01F0201249D
:101CD00094401C400CB1012000E0002010BD38B53C
:101CE000002000900024002500BF3120FFF7DBFF1B
:101CF00005460098401C00900098B0F5A06F01D0F8
:101D0000002DF2D03120FFF7CEFF08B1012400E012
:101D10000024204638BD01460020A14A106820F06A
:101D2000F80040EAC10010607047A04908607047A1
:101D3000024600209A4B586820F47C1042EA0103C6
:101D40001843974B5860704798490866704701469A
:101D50000020934A506820F0030008435060704709
:101D60008F48406800F00C007047014600208C4A04
:101D7000506820F0F0000843506070470146002092
:101D8000874A506820F4E06008435060704701467D
:101D90000020834A506820F4605040EAC10050603F
:101DA000704729B17E4A527A02437D4B5A7204E051
:101DB0007B4A527A82437A4B5A7270477B49D831B8
:101DC0000860704701460020754A506820F4404082
:101DD0000843506070470021714A20321170704AE8
:101DE00082F82010012802D004280AD104E0012141
:101DF0006B4A2032117005E00521694A20321170CA
:101E000000E000BF00BF704769490860704764493F
:101E1000096A0143624A11627047654944390860A2
:101E2000704730B500210022002400235C4D6D680E
:101E300005F00C0121B1042905D0082923D105E0C2
:101E40005C4D056022E05B4D05601FE0544D6D6800
:101E500005F47012524D6D6805F48034022505EBCF
:101E600092421CB9544D554305600BE04C4D6D68D2
:101E700005F400351DB1504D5543056002E04D4D50
:101E80005543056002E04B4D056000BF00BF444D67
:101E90006D6805F0F0010909484D6B5C0568DD408F
:101EA00045603F4D6D6805F4E061090A434D6B5C88
:101EB0004568DD4085603A4D6D6805F46051C90A9A
:101EC0003E4D6B5C4568DD40C560354D6D6805F481
:101ED0004041890B3A4D6B5CC568B5FBF3F5056174
:101EE00030BD29B12E4A526902432D4B5A6104E09C
:101EF0002B4A526982432A4B5A61704729B1284ABA
:101F000092690243264B9A6104E0254A9269824312
:101F1000234B9A61704729B1214AD2690243204B71
:101F2000DA6104E01E4AD26982431D4BDA617047D0
:101F300029B11B4AD2680243194BDA6004E0184AFF
:101F4000D2688243164BDA60704729B1144A12698D
:101F50000243134B1A6104E0114A12698243104B89
:101F60001A61704712494039086070470F49C864C8
:101F700070470B49C87170470948406A40F080704B
:101F800007494862704701460020054A92680A40A6
:101F90000AB1012000E000207047014988727047B3
:101FA000001002400000FFF8FFFFF6FE0000424272
:101FB0008004424200127A0000093D003C000020EB
:101FC0004C00002031490143314A1160704770B51F
:101FD000002100230F22C47804B32D4C246804F49C
:101FE000E064C4F5E064210AC1F10403CA40447806
:101FF00004FA03F18478144021430901254C067842
:10200000A155047804F01F050124AC4005786D113A
:10201000AD0005F1E025C5F8004109E0047804F0C1
:102020001F050124AC401C4D0678761145F826406A
:1020300070BD1A4A0A400243154B1B1F1A607047B5
:1020400039B1134A121D12680243114B1B1D1A604D
:1020500006E00F4A121D126882430D4B1B1D1A60C9
:102060007047042808D14FF0E021096941F00401CC
:102070004FF0E022116107E04FF0E021096921F003
:1020800004014FF0E0221161704700000000FA05E2
:102090000CED00E000E400E080E100E080FFFF1FC5
:1020A00010B50446FE48844208D10121C014FFF750
:1020B0003FFF0021E014FFF73BFFC4E0B4F1804F85
:1020C00008D101210846FFF740FF00210120FFF75A
:1020D0003CFFB8E0F348844208D101210220FFF719
:1020E00034FF00210220FFF730FFACE0EE488442CD
:1020F00008D101210420FFF728FF00210420FFF769
:1021000024FFA0E0E948844208D101210820FFF71C
:102110001CFF00210820FFF718FF94E0E4488442E8
:1021200008D101211020FFF710FF00211020FFF738
:102130000CFF88E0DF48844208D101212020FFF70E
:1021400004FF00212020FFF700FF7CE0DA488442F2
:1021500008D101214014FFF7EBFE00216014FFF7C6
:10216000E7FE70E0D548844209D10121C804FFF799
:10217000DFFE00214FF40020FFF7DAFE63E0D048D5
:10218000844209D101210805FFF7D2FE00214FF456
:102190008010FFF7CDFE56E0CA48844209D10121E4
:1021A0004805FFF7C5FE00214FF40010FFF7C0FE01
:1021B00049E0C548844208D101214020FFF7C5FE0F
:1021C00000214020FFF7C1FE3DE0C048844208D115
:1021D00001218020FFF7B9FE00218020FFF7B5FE26
:1021E00031E0BB48844208D101218015FFF7ADFEE4
:1021F0000021A015FFF7A9FE25E0B648844209D1C9
:1022000001210804FFF794FE00214FF48030FFF70E
:102210008FFE18E0B048844209D101214804FFF73D
:1022200087FE00214FF40030FFF782FE0BE0AB4841
:10223000844208D101218804FFF77AFE00214FF47F
:102240008020FFF775FE10BD00220288944B984253
:102250000ED0994B98420BD0B0F1804F08D0914BE3
:10226000984205D0904B984202D0904B984204D1AE
:102270004FF68F731A404B881A438D4B984207D004
:102280008C4B984204D04FF6FF431A40CB881A4338
:1022900002808B8883850B880385814B98420BD005
:1022A000854B984208D08B4B984205D08A4B984278
:1022B00002D08A4B984201D10B7A03860123838294
:1022C000704770B5002400220023058C4FF6FE767F
:1022D00035400584028C8388048B4FF68F752C4023
:1022E000B51E2C400D882C43751E2A400D892A43AB
:1022F0004D882A436A4DA8420BD06F4DA84208D0A2
:10230000744DA84205D0744DA84202D0734DA84226
:1023100013D14FF6F7752A404D892A434FF6FB75C6
:102320002A408D882A434FF6FF652B404FF6FF5514
:102330002B408D892B43CD892B4383800483CD880B
:102340008586028470BD70B5002400220023058CB0
:102350004FF6EF7635400584028C8388048B48F66F
:10236000FF752C404FF6FF452C400D884FF6FF7649
:1023700006EA05252C434FF6DF752A400D8906EA4B
:1023800005152A434D8806EA05152A43444DA842FF
:1023900002D0494DA8421DD14FF67F752A404D8984
:1023A0004FF6FF7606EA05152A434FF6BF752A4019
:1023B0008D8806EA05152A434FF6FF352B404FF26C
:1023C000FF752B408D8906EA85052B43CD8906EAEA
:1023D00085052B4383800483CD880587028470BDE7
:1023E00070B5002400220023058C4FF6FF663540AF
:1023F0000584028C8388848B4FF68F752C404FF6B2
:10240000FC752C400D882C434FF6FF552A400D8952
:102410004FF6FF7606EA05252A434D8806EA05258C
:102420002A431F4DA84202D0234DA8421DD14FF28E
:10243000FF752A404D894FF6FF7606EA05252A43A7
:102440004FF6FF352A408D8806EA05252A434EF6C9
:10245000FF752B404DF6FF752B408D8906EA05155B
:102460002B43CD8906EA05152B4383808483CD88D1
:102470008587028470BD70B5002200230024058C7E
:102480004EF6FF7635400584038C8488828B48F6AF
:10249000FF752A404FF6FF452A400D8820E00000D6
:1024A000002C01400004004000080040000C0040E7
:1024B000001000400014004000340140004C014076
:1024C000005001400054014000180040001C004032
:1024D000002000400040014000440140004801400D
:1024E0004FF6FF7606EA05252A434DF6FF752B4089
:1024F0000D8906EA05352B434D8806EA05352B4341
:10250000FA4DA84202D0FA4DA84208D14BF6FF7509
:102510002C408D894FF6FF7606EA85152C43848082
:102520008283CD88A0F84050038470BD828B4FF227
:10253000FF331A408283828B4FF6FF7303EA012335
:102540001A4382837047F0B50C46154600220021DD
:102550000026078C4EF6FF7C07EA0C070784828B67
:10256000018C4FF6FF7707EA043640F6FF473A4002
:102570004FF6FF7707EA05273A434FF6FF7707EA5A
:1025800003373A43D94FB8420ED0D94FB8420BD097
:10259000B0F1804F08D0D74FB84205D0D64FB842DF
:1025A00002D0D64FB84206D14DF6FF77394046F4F7
:1025B0008057394305E047F6FF57394044F48057C8
:1025C000394382830184F0BD828B4FF6F3731A4046
:1025D0008283828B0A4382837047F0B50C4615468E
:1025E000002200210026078C4FF6FF6C07EA0C073B
:1025F0000784828B018C4FF6FF7707EA04264FF69B
:102600000C773A404FF6FF7707EA03172F433A4318
:10261000B64FB8420ED0B64FB8420BD0B0F1804F93
:1026200008D0B44FB84205D0B34FB84202D0B34F30
:10263000B84206D14FF6FF57394046F48077394308
:1026400005E04FF2FF57394044F4807739438283E5
:102650000184F0BD028B4FF2FF331A400283028BDC
:102660004FF6FF7303EA01231A4302837047F0B564
:102670000C461546002200210026078C4FF6EF7C01
:1026800007EA0C070784028B018C4FF6FF7707EAF5
:10269000041640F6FF473A404FF6FF7707EA033744
:1026A0003A434FF6FF7707EA05273A438F4FB84280
:1026B0000ED08F4FB8420BD0B0F1804F08D08D4F65
:1026C000B84205D08C4FB84202D08C4FB84206D1E8
:1026D0004FF6DF77394046F01007394305E04FF6F3
:1026E0005F77394044F01007394302830184F0BD1D
:1026F000028B4FF6F3731A400283028B0A43028364
:102700007047F0B50C46154600220021068C4FF6A6
:10271000FE773E400684028B018C4FF60C763240E9
:102720007E1C06EA03162E433243704EB0420ED092
:102730006F4EB0420BD0B0F1804F08D06D4EB0421A
:1027400005D06D4EB04202D06C4EB04206D14FF66D
:10275000FD76314044F00106314305E04FF6F57651
:10276000314044F00106314302830184F0BD70B56D
:1027700005460C465D4885420ED05D4885420BD02B
:10278000B5F1804F08D05B48854205D05A48854254
:1027900002D05A48854200D100E000BF208850B9DD
:1027A0002389A28861882846FFF7ABFFE188284685
:1027B000FFF79EFF25E0208804280AD12389A288FC
:1027C00061882846FFF753FFE1882846FFF742FF5C
:1027D00017E0208808280AD12389A2886188284622
:1027E000FFF7FBFEE1882846FFF7EEFE09E02389AC
:1027F000A28861882846FFF7A6FEE1882846FFF7F1
:1028000095FE70BD2DE9F04105460C4600260127D6
:10281000608808B9022600E00026A088012801D1BE
:10282000022700E001272088A0B92389A2886188B7
:102830002846FFF766FFE1882846FFF759FF2389FE
:102840003A4631462846FFF712FFE1882846FFF74F
:1028500001FF13E02389A28861882846FFF707FF5C
:10286000E1882846FFF7F6FE23893A463146284696
:10287000FFF747FFE1882846FFF73AFFBDE8F08100
:102880000A884B881A438B881A43CB881A430B89D2
:102890001A434B891A438B891A43A0F84420704786
:1028A0004FF6FF71818000210180C180418001725B
:1028B00070470021018041808180C1800181418178
:1028C0008181C18170470021018041800121818087
:1028D0000021C180018170470021018041808180F9
:1028E000C18001814181818170470000002C01403D
:1028F000003401400004004000080040000C00408B
:1029000021B1028842F00102028004E002884FF601
:10291000FE731A400280704731B1B0F8442042F48F
:102920000042A0F8442005E0B0F84420C2F30E02B3
:10293000A0F8442070471AB183890B43838102E0D9
:1029400083898B43838170478182704741EA020308
:10295000A0F8483070471AB183890B43838102E0A5
:1029600083898B438381704701894FF6F872114048
:10297000018170470A46002101894FF68F73194083
:1029800011430181704730B504460D462946204663
:10299000FFF7F0FF208940F00700208130BD2DE9CE
:1029A000F04104460D4616461F46602D06D13B46B3
:1029B000012231462046FFF75AFE05E03B46012240
:1029C00031462046FFF79DFE29462046FFF7D2FFFD
:1029D000208940F007002081BDE8F08130B50C4629
:1029E00000210189C9B24FF6FF7505EA0325154399
:1029F00025432943018130BD2DE9F04105460E46AE
:102A000017469846002443463A4631462846FFF783
:102A1000E5FF2C894FF6F870044044F007044FF6A8
:102A20008F70044044F070042C81BDE8F081F0B553
:102A300004460D4616461F463B463246294620466A
:102A4000FFF7CCFF208940F480402081F0BD018554
:102A5000828270470A46002101884FF68F73194021
:102A6000114301807047F0B50C4615461E46002103
:102A7000002200230189028B038C4FF6F87739403E
:102A800021434FF6FC473A4040F201173A434FF6D4
:102A9000DD773B404FF6FF7707EA06172F433B43AE
:102AA000018102830384F0BD0A460021018B4FF6A9
:102AB0008F7319401143018370470A460021018B2F
:102AC00048F6FF7319404FF6FF7303EA02231943D8
:102AD000018370470A460021818B4FF68F7319409E
:102AE0001143818370470A460021818B48F6FF73AA
:102AF00019404FF6FF7303EA02231943818370479D
:102B000021B1028842F08002028004E002884FF680
:102B10007F731A400280704721B1828842F004021C
:102B2000828004E082884FF6FB731A4082807047EF
:102B300021B1828842F00802828004E082884FF648
:102B4000F7731A408280704721B1828842F00102F7
:102B5000828004E082884FF6FE731A4082807047BC
:102B60000A460021018B4FF6F77319401143018388
:102B700070470A460021018B4FF2FF7319404FF650
:102B8000FF7303EA02231943018370470A460021B9
:102B9000818B4FF6F77319401143818370470A46C2
:102BA0000021818B4FF2FF7319404FF6FF7303EA48
:102BB00002231943818370470A460021018B4FF697
:102BC000FB7319401143018370470A460021018BB2
:102BD0004FF6FF3319404FF6FF7303EA0223194300
:102BE000018370470A460021818B4FF6FB73194021
:102BF0001143818370470A460021818B4FF6FF33D2
:102C000019404FF6FF7303EA02231943818370478B
:102C10000A460021018B4FF67F731940114301834F
:102C200070470A460021018BC1F30E014FF6FF7376
:102C300003EA02231943018370470A460021818B6E
:102C40004FF67F7319401143818370470A46002174
:102C5000818BC1F30E014FF6FF7303EA0223194380
:102C6000818370470A460021018C4FF6FD7319409D
:102C70001143018470470A460021018C4FF6F77317
:102C800019401143018470470A460021018C4FF618
:102C9000DF7319404FF6FF7303EA021319430184EF
:102CA00070470A460021018C4FF67F7319404FF69A
:102CB000FF7303EA02131943018470470A46002197
:102CC000018C4FF6FF5319404FF6FF7303EA0223BE
:102CD0001943018470470A460021018C4FF2FF73AB
:102CE00019404FF6FF7303EA02231943018470472A
:102CF0000A460021018C4DF6FF7319404FF6FF7311
:102D000003EA023319430184704730B500230124DC
:102D10008C40A3B2048C9C430484048C02FA01F519
:102D2000ADB22C43048430BD30B5002304248C4064
:102D3000A3B2048C9C430484048C02FA01F5ADB266
:102D40002C43048430BD70B503460020002418468F
:102D5000183001258D40ACB21D8CA5431D8409B1EE
:102D6000082909D100EB6100056825F070050560B0
:102D70000568154305600EE00D1FC5F34E05284498
:102D8000056825F4E045056005684FF6FF7606EA1C
:102D900002263543056070BD21B1028842F002026F
:102DA000028004E002884FF6FD731A4002807047EB
:102DB00021B1028842F00402028004E002884FF64A
:102DC000FB731A400280704721B1828842F0800272
:102DD000828004E082884FF67F731A4082807047B9
:102DE00002884FF6F7731A40028002880A43028075
:102DF000704782884FF68F731A40828082880A4318
:102E00008280704702894FF6F8731A400281028966
:102E10000A430281704702894FF67F731A4002818C
:102E200002890A4302817047818470478185704717
:102E3000818670470187704781877047A0F84010EE
:102E4000704702884FF6FF431A40028002880A4307
:102E5000028070470146888E70470146088F704790
:102E60000146888F70470146B1F84000704701461F
:102E7000888C70470146088D704702460020138AEF
:102E80000B400BB1012000E000207047CA430282D2
:102E9000704730B50246002000230024158A05EA59
:102EA0000103958905EA010413B10CB1012000E08A
:102EB000002030BDCA4302827047000001684FF60F
:102EC000FE72114001600021016041608160C160BB
:102ED0008D49884208D18C490839496841F00F0171
:102EE000894A083A51608AE087491431884208D1FA
:102EF00085490839496841F0F001834A083A516030
:102F00007DE081492831884208D17F4908394968E4
:102F100041F470617C4A083A516070E07A493C3172
:102F2000884208D178490839496841F47041764AA5
:102F3000083A516063E074495031884208D17249BF
:102F40000839496841F470216F4A083A516056E0E7
:102F50006D496431884208D16B490839496841F4A8
:102F60007001694A083A516049E0674978318842FE
:102F700008D165490839496841F07061624A083AE8
:102F800051603CE06149884206D1011F096841F067
:102F90000F01021F116032E05C491431884208D1F0
:102FA0005A49091F096841F0F001584A121F11607F
:102FB00025E056492831884208D15449091F09683B
:102FC00041F47061514A121F116018E04F493C31C1
:102FD000884208D14D49091F096841F470414B4AA4
:102FE000121F11600BE049495031884207D147490F
:102FF000091F096841F47021444A121F116070478B
:1030000010B50022026847F6F0739A430C6A8B6889
:1030100023430C6923434C6923438C692343CC69C4
:1030200023434C6A23438C6A23431A430260CB68D0
:1030300043600B6883604B68C36010BD0021016072
:1030400041608160C160016141618161C161016272
:1030500041628162704721B1026842F00102026060
:1030600004E002684FF6FE731A40026070471AB11E
:1030700003680B43036002E003688B4303607047FF
:10308000416070470146486880B2704701460020A1
:10309000002201F080531BB11C4B083B1A6802E070
:1030A000194B083B1A6802EA01030BB1012000E04A
:1030B0000020704700F0805119B11449091F0860C1
:1030C00002E011490839486070470146002000229B
:1030D00001F080531BB10D4B083B1A6802E00A4B0C
:1030E000083B1A6802EA01030BB1012000E000204E
:1030F000704700F0805119B10449091F086002E0CF
:10310000014908394860704708000240080402403D
:1031100010B50446FA48844208D101214015FEF753
:1031200007FF00216015FEF703FF17E0F548844212
:1031300008D101210015FEF7FBFE00212015FEF746
:10314000F7FE0BE0F048844208D10121C803FEF7E6
:10315000EFFE00214FF40040FEF7EAFE10BD30B54F
:103160000246002000235068E84C20400D790C688E
:1031700044EA0524204350609068E54C2040D1E9A2
:1031800002542C434D7944EA450420439060D06AB0
:1031900020F470000C7C641EE4B2234340EA035028
:1031A000D06230BD00210160017141718160C16058
:1031B00001210174704721B1826842F001028260EE
:1031C00003E0826822F001028260704721B18268C8
:1031D00042F48072826003E0826822F4807282602E
:1031E000704710B50023CBB21AB144681C43446049
:1031F00002E044689C43446010BD816841F00801CE
:1032000081607047014600208A6802F008020AB116
:10321000012000E000207047816841F004018160D6
:103220007047014600208A6802F004020AB10120BA
:1032300000E00020704721B1826842F4A002826061
:1032400003E0826822F4A0028260704701460020F9
:103250008A6802F480020AB1012000E00020704771
:1032600010B50A4600210023416821F46041531E35
:1032700041EA4331416010BD21B1426842F400622D
:10328000426003E0426822F4006242607047F0B599
:1032900004460D4600200021092D11DDE068A5F14E
:1032A0000A0606EB4607072606FA07F18843A5F14A
:1032B0000A0606EB460603FA06F10843E0600CE056
:1032C000206905EB4507072606FA07F1884305EB59
:1032D000450603FA06F108432061072A0FDA606BFE
:1032E000561E06EB86071F2606FA07F18843561E70
:1032F00006EB860605FA06F10843606322E00D2A14
:103300000FDA206BD61F06EB86071F2606FA07F199
:103310008843D61F06EB860605FA06F108432063AC
:1033200010E0E06AA2F10D0606EB86071F2606FAFA
:1033300007F18843A2F10D0606EB860605FA06F1B1
:103340000843E062F0BD21B1826842F480128260DD
:1033500003E0826822F48012826070470146C86CE4
:1033600080B2704766484C300068704721B14268AF
:1033700042F48062426003E0426822F4806242606C
:10338000704721B1426842F48052426003E04268D3
:1033900022F48052426070470A460021816821F47D
:1033A000E04111438160704721B1826842F40042DC
:1033B000826003E0826822F400428260704721B19B
:1033C000826842F40212826003E0826822F40212F0
:1033D00082607047014600208A6802F400120AB138
:1033E000012000E000207047F0B50446154600209B
:1033F00000220026092911DDE068A1F10A0707EB88
:10340000470C072707FA0CF29043A1F10A0707EBD4
:10341000470703FA07F21043E0600CE0206901EB74
:10342000410C072707FA0CF2904301EB410703FA1E
:1034300007F210432061A06BC0F30156EF1C06F1A8
:10344000010CA7EB0C0707EB870C1F2707FA0CF200
:103450009043EF1C06F1010CA7EB0C0707EB870765
:1034600001FA07F21043A063F0BD10B50A4600212F
:103470000023816B21F44011531E41EA0351816303
:1034800010BD08B5002300930090009B0B440093EF
:10349000009B1A6008BD08B502460020009000920B
:1034A00001F12800009B184400900098006880B249
:1034B00008BD0A4600214168164B1940114341607E
:1034C00070474162826270470A460021416821F0DC
:1034D0001F0111434160704740B109490831096833
:1034E00041F40001064A0832116007E0044908313E
:1034F000096821F40001024A083211607047000097
:103500000024014000280140003C0140FFFEF0FF84
:10351000FDF7F1FFFFFD3FFF0246002013680B405F
:103520000BB1012000E000207047CA4302607047E1
:1035300070B502460020002300240B125568CEB25D
:1035400005EA060415681D4015B10CB1012000E024
:10355000002070BD00220A12D343036070477047F9
:1035600070477047754600F029F8AE460500694679
:10357000534620F00700854618B020B5FEF790F9B5
:10358000BDE820404FF000064FF000074FF0000864
:103590004FF0000B21F00701AC46ACE8C009ACE8E5
:1035A000C009ACE8C009ACE8C0098D4670470446C4
:1035B000AFF300802046FCF702FE00000048704791
:1035C000B404002001491820ABBEFEE7260002002B
:1035D0007047303132333435363738393A207C2D24
:1035E0002B3C2E5E616263646566676869676B6C1D
:1035F0006D6E6F707172737475767778797A4142F7
:1036000043444546474849474B4C4D4E4F50515215
:10361000535455565758595A5F00000007F0080890
:1036200010041004080807F000000000000008045F
:1036300008041FFC00040004000000000E0C10141D
:103640001024104410840F0C000000000C1810040B
:103650001084108411440E3800000000006001A0A6
:1036600002240C241FFC0024002400001F981104D5
:1036700011041104108810700000000007F0088881
:1036800011041104090400F80000000018001000E3
:10369000107C118016001800000000000E38114444
:1036A0001084108411440E38000000000F80104870
:1036B00010441044088807F00000000000000000DB
:1036C000030C030C000000000000000000000000DC
:1036D00000000000000000000000000000000000EA
:1036E0000000FFFF000000000000000000800080DC
:1036F00000800080008000800000000000800080CA
:10370000008007F000800080008000000080014001
:10371000022004100808100400000000000C000C37
:103720000000000000000000000000000000200079
:10373000400040002000000000000000009801242C
:103740000124014800FC0004000008000FFC008870
:10375000010401040088007000000000007000886F
:1037600001040104010400880000000000F80104C5
:103770000104010409080FFC0004000000F8012402
:1037800001240124012400E80000000001040104D8
:1037900007FC0904090404000000000000D6012908
:1037A0000129012901C90106000008040FFC008459
:1037B00001000100010400FC0004000001041904E0
:1037C00019FC0004000400000000000000D60129DC
:1037D0000129012901C90106000008040FFC002489
:1037E00000600194010C01040000000008040804BA
:1037F0001FFC0004000400000000010401FC01049F
:10380000010001FC0104010000FC010401FC008432
:1038100001000100010400FC0004000000F80104A4
:1038200001040104010400F80000010101FF008906
:10383000010401040088007000000000007000888E
:1038400001040104008901FF00010104010401FCDD
:1038500000840104010001800000000000CC01246C
:10386000012401240124019800000000010001004E
:1038700007F80104010400080000010001F8000439
:1038800000040004010801FC0004010001C0013033
:10389000000C013001C00100000001800170000C2B
:1038A000013001E0001C0160018000000104018C76
:1038B00001700074018C01040000010001810161AC
:1038C000001E001801600180010000000184010C4D
:1038D000013401440184010C00000004003C03C4D5
:1038E0001C40074000E4001C000410041FFC1104ED
:1038F000110411040E880070000003E00C1810047D
:103900001004100410081C10000010041FFC100408
:1039100010041004080807F0000010041FFC110434
:10392000110417C410040818000010041FFC11042F
:10393000110017C010000800000003E00C1810046C
:10394000100410441C780040000010041FFC108478
:103950000080008010841FFC10040000100410047C
:103960001FFC100410040000000003E00C181004F9
:10397000100410441C780040000010041FFC1104C7
:1039800003801464181C1004000010041FFC1004B1
:10399000000400040004000C000010041FFC1F8041
:1039A000007C1F801FFC1004000010041FFC0C048E
:1039B000030000E010181FFC100007F008081004B6
:1039C00010041004080807F0000010041FFC108405
:1039D0001080108010800F00000007F008081014FD
:1039E0001014100C080A07F2000010041FFC110448
:1039F000110011C011300E0C000400000E1C110447
:103A00001084108410441C380000180010001004AA
:103A10001FFC100410001800000010001FF8100414
:103A20000004000410041FF8100010001E0011E034
:103A3000001C007013801C00100010001FC0007CD0
:103A40001F80007C1FC0100000001004180C1634EA
:103A500001C001C01634180C100410001C0013041F
:103A600000FC13041C00100000000804101C10646B
:103A7000108413041C041018000000010001000150
:103A800000010001000100010001D7F3D3D2C9CF2A
:103A9000CFC2D3EAB5CEC9E8D6C3B9E2D5D50010B6
:103AA0000410081012106211821E82F0821082101F
:103AB000FE1082108210821082100210020000108C
:103AC0001010201040108013FF1C82F08210821012
:103AD0008210821082108210FF100010000000007F
:103AE0000200020002000200020002FFFE020202C7
:103AF0000202020202020202020002000200004070
:103B000000400040004000400040007FFF40004077
:103B10000042004100408040604000400000004002
:103B20000047FF440044004490444844007FFE4462
:103B300000449044484402440147FE40000000080D
:103B4000200620407E3180000027FF24003578AD1C
:103B50004867C82D48357A240127FE00000000027E
:103B6000000200420033FC00090211050279C24143
:103B70003441084114796205820401040100000007
:103B800002E802A802ABFEAAAAEAAAAAAABEAAAAA8
:103B9000AAEAAAAAAAABFEA802E802000200000252
:103BA000010201420222041A1803E00200FE000290
:103BB0000003FC0A02120262020202021E0000005E
:103BC000017FF64210421042147FF300004200458C
:103BD000F479134110451043147DF30000000000F8
:103BE000003C000800000020500000006C010008AC
:103BF000503C000850000020C80A0000880100085E
:103C000014001E002800000000000000000000005A
:103C100064000000000000006400000000000000DC
:103C200000A24A040000000000000000010203049A
:103C30000607080900000000000000000000000066
:103C4000010203040102030406070809020406082E
:0400000508000131BD
:00000001FF
