:060B9900011C00011B001D
:1009B400E4F509120006120B5F120A41120B1480AF
:1009C4002C781CE61460FA24F1601824DF60F22409
:1009D400317020781C7601120965EF70E4781C767A
:1009E4003180DE120BC3781EEFF6120ABDE4781CC8
:0909F400F680CEE4781CF680C800
:10000600B2C2120B7DB2C2120B7DB2C2120B7DB20E
:0C001600C2120B7DB2C2120B7DB2C222DE
:100B5F007580FF7590FF75A0FF75B0FF75C0FF75AD
:0E0B6F0092FFE4F591C2C3D289D2A8D2AF2280
:080BBA007F017E61DEFEDFFA1F
:010BC2002210
:080B3B008F148E138D128C1132
:100B4300E4F515F516F517F518781174FF12052D50
:0B0B5300EC4D4E4F6005120BBA80EE17
:010B5E002274
:0D0B7D007F047E747DD6DDFEDEFADFF6001B
:010B8A002248
:03000300020A826C
:100A8200C0E0C0F0C083C082C0D075D000C000C03A
:100A920001C002C003C004C005C006C0071207524D
:100AA200D007D006D005D004D003D002D001D000A8
:0B0AB200D0D0D082D083D0F0D0E03252
:100ABD008F0AE50AD394004008E50A2440F50A8020
:100ACD0003750A23AF0A120B8BE50A7006751B011D
:0E0ADD00C2C222E51BB40105E4F51BD2C22201
:040B9F000219258092
:100B1400759850758920AE19AF1AAB07AA06E4F987
:100B2400F8FF7EE1FDFC1209FD12051D8F8B8F8DF0
:070B3400D28ED2ACD2AF2239
:03002300020022B6
:0100220032AB
:0E0B8B00C2ACC2998F993099FDC299D2AC22AA
:0B0BA400908100EFF0908000EDF02247
:0B0BAF00908100EFF0908000E0FF223A
:100026006C61206A692066656E206C656900000057
:1000360000000000000000000000000000006361F6
:100046006E206A696E207A68690000000000000070
:100056000000000000000000000000007375206C26
:1000660069616F2064616900000000000000000003
:10007600000000000000000000007A68656E207431
:100086006F75000000000000000000000000000086
:10009600000000000000000064612068756F206A9F
:1000A60069000000000000000000000000000000E1
:1000B60000000000000064656E672070616F00003C
:1000C600000000000000000000000000000000002A
:1000D600000000007368612063686F6E67206A69BC
:1000E600000000000000000000000000000000000A
:1000F60000006C616F207368752079616F000000E5
:1001060000000000000000000000000000000000E9
:10011600796F7520716920746F6E670000000000AA
:1001260000000000000000000000000000006775ED
:1001360020746F7500000000000000000000000041
:100146000000000000000000000000006C616E204E
:10015600636169207965000000000000000000006E
:10016600000000000000000000007368656E672054
:1001760066616E0000000000000000000000000044
:10018600000000000000000067756F207069000025
:100196000000000000000000000000000000000059
:1001A6000000000000007A68692068650000000011
:1001B6000000000000000000000000000000000039
:1001C6000000000079696E206C69616F2070696EAD
:1001D60067000000000000000000000000000000B2
:1001E60000006A696E207368750000000000000058
:1001F60000000000000000000000000000000000F9
:1002060062616F207A68690000000000000000004B
:1002160000000000000000000000000000000000D8
:1002260000000000000000000000000000000000C8
:1002360000000000000000000000000000000000B8
:1002460000000000000000000000000000000000A8
:1004E6000000000000000000000000000000000105
:1004F60002030405060708090A0B0C0D0E0F10115E
:1005060012131415161718191A1B1C1D1E1F20214D
:0705160022232425262728DB
:100A4100D2B57F057E007D007C00120B3BC2B57FD5
:100A5100057E007D007C00120B3BD2B57F057E0038
:100A61007D007C00120B3BC2A17F057E007D007CD6
:100A710000120B3BD2A17F057E007D007C00020BA2
:010A81003B39
:1006B6007F06120BAF7D357F17120BA47F0A7E00D3
:1006C6007D007C00120B3B7F06120BAF7D037F89FA
:1006D600120BA47F057E007D007C00120B3B7D4340
:1006E6007FCF120BA47F057E007D007C00120B3BA2
:1006F6007D027FCB120BA47D0A7F11120BA4E4FDB1
:100706007F1E120BA47D3F7F19120BA47D487F1B11
:10071600120BA47D1F7F1D120BA47F0A7E007D0095
:100726007C00120B3B7D047FCD120BA47F057E005F
:100736007D007C00120B3BE4FD7FB9120BA47D4FBC
:0C0746007FCF120BA47DFF7F6F020BA47D
:100906001206B6E4FD7FBD120BA47D487F17120BBD
:10091600A47F0A7E007D007C00120B3B7D807F3C1D
:10092600120BA47D077F3E120BA47DFF7F38120BAE
:10093600A47D077F3A120BA4E4FD7F40120BA47D31
:10094600087F42120BA4E4FD7F44120BA47D087FAE
:0F09560046120BA47F017E007D007C00020B3B4C
:10075200E4F508C2A87F2B120BAF781DA607E4FDB3
:100762007F29120BA4E4FD7F02120BA4781DE63050
:10077200E42D7FB2120BAFEF642170237FBF120B07
:10078200AFBF351B7FBA120BAF8F08E508D39400B9
:10079200400DE508D394045006781C761080047846
:1007A2001C7611E4FD7F2B120BA4E4FD7F1C120BBF
:1007B200A4E4FD7F29120BA4E4FD7F02120BA4E442
:1007C200FD7F2B120BA4E4FD7FBA120BA4E4FD7F84
:1007D200BC120BA47D017F08120BA4E4FD7F08125A
:0407E2000BA4D2A8EA
:0107E60022F0
:10096500E4F50AF50BF50A120BC97F327E007D000E
:100975007C00120B3B120619EF700280117F0A7E74
:10098500007D007C00120B3B1207E7EF7010120A86
:10099500417F327E007D007C00120B3B8005750B8C
:0E09A500018009050AE50AC3940540BBAF0BAB
:0109B3002221
:100AEB00E4F510F50F7FB2120BAFBF2105751001A6
:100AFB0080147F0A7E007D007C00120B3B050FE506
:080B0B000FC3940A40DFAF1094
:010B130022BF
:030BC90002090618
:1007E700C2A87D557F35120BA47D097F1C120BA46F
:1007F7007D207FBD120BA47D017F08120BA47F0112
:100807007E007D007C00120B3BE4FD7F08120BA4E9
:100817007F017E007D007C00120B3B120AEBEF701C
:1008270002FF227D0B7F1C120BA47DFF7FB2120BF0
:10083700A47F017E007D007C00120B3B7D067F3785
:10084700120BA47F017E007D007C00120B3B7D060E
:100857007F37120BA47F057E007D007C00120B3BC7
:100867007D107F29120BA4E4FD7FBD120BA4D2A833
:030877007F0122DC
:10061900750D01E4F50C120AEBEF7005F50D0206F4
:10062900B3E50C9004F493FD7FC1120BA4E4FD7FA4
:10063900C3120BA47D047F08120BA47F017E007DE9
:10064900007C00120B3BE4FD7F08120BA47F017EA6
:10065900007D007C00120B3BE4F50E75F01EE50CE5
:10066900A42426F582E5F03400F583E582250EF50C
:1006790082E43583F583E493FD600E7F05120BA4B4
:10068900050EE50EC3941E40D2AD0E7FB9120BA420
:100699007DFF7FB2120BA47D047F37120BA4050CDA
:0C06A900E50CC39429500302061FAF0D9E
:0106B5002222
:060BC3007FC5120BAF22FA
:0300000002087A79
:0C087A00787FE4F6D8FD75811E0208C1ED
:1009FD00C2D5E830E70FB2D5E4C39BFBE49AFAE425
:100A0D0099F9E498F8EC30E717B2D5120A331205CC
:100A1D0087E4C39BFBE49AFAE499F9E498F8800320
:100A2D0012058730D50DE4C39FFFE49EFEE49DFDC6
:040A3D00E49CFC2217
:0E051D00C3E49FFFE49EFEE49DFDE49CFC22EF
:10052B007401FF3395E0FEFDFC080808E6CF2FF6BB
:10053B0018E6CE3EF618E6CD3DF618E6CC3CF62294
:100886000209B4E493A3F8E493A34003F68001F2CB
:1008960008DFF48029E493A3F85407240CC8C33373
:1008A600C4540F4420C8834004F456800146F6DF42
:1008B600E4800B0102040810204080900B99E47E2E
:1008C600019360BCA3FF543F30E509541FFEE49337
:1008D600A360010ECF54C025E060A840B8E493A3FE
:1008E600FAE493A3F8E493A3C8C582C8CAC583CA29
:1008F600F0A3C8C582C8CAC583CADFE9DEE780BEE1
:010BA3000051
:10054B0075F008758200EF2FFFEE33FECD33CDCC67
:10055B0033CCC58233C5829BED9AEC99E5829840EA
:10056B000CF582EE9BFEED9AFDEC99FC0FD5F0D6C7
:10057B00E4CEFBE4CDFAE4CCF9A88222B800C1B9F1
:10058B000059BA002DEC8BF084CFCECDFCE5F0CB2F
:10059B00F97818EF2FFFEE33FEED33FDEC33FCEB68
:1005AB0033FB10D703994004EB99FB0FD8E5E4F923
:1005BB00FA227818EF2FFFEE33FEED33FDEC33FC10
:1005CB00C933C910D7059BE99A4007EC9BFCE99A04
:1005DB00F90FD8E0E4C9FAE4CCFB2275F010EF2F49
:1005EB00FFEE33FEED33FDCC33CCC833C810D70749
:1005FB009BEC9AE899400AED9BFDEC9AFCE899F884
:0E060B000FD5F0DAE4CDFBE4CCFAE4C8F92216
:00000001FF
