:06068900011F00011E002C
:1004BA00E4F50912064712000612050312062A80FD
:1004CA002C781FE61460FA24F1601824DF60F22405
:1004DA00317020781F760112046BEF70E4781F7672
:1004EA003180DE1206AA7821EFF6120419E4781F89
:0904FA00F680CEE4781FF680C8FC
:10064700B2C2120671B2C2120671B2C2120671B2FA
:0C065700C2120671B2C2120671B2C222B9
:100006007580FFE4F59075A0FF75B0FF75C0FFF52C
:0D001600917592FFC2C3D289D2A8D2AF2249
:0A067E0000007F057E49DEFEDFFC70
:01068800224F
:080606008F148E138D128C116C
:10060E00E4F515F516F517F518781174FF12059A1D
:0B061E00EC4D4E4F600512067E80EE92
:0106290022AE
:0C0671007F117ED07D1BDDFEDEFCDFFA79
:01067D00225A
:03000300020544AF
:10054400C0E0C0F0C083C082C0D075D000C000C07D
:1005540001C002C003C004C005C006C007120206E1
:10056400D007D006D005D004D003D002D001D000EB
:0B057400D0D0D082D083D0F0D0E03295
:10041900EF14601E24FD602214602724EF602B1462
:10042900603024E86034242D70377F41120663D28E
:1004390091227F42120663D290227F43120663D231
:1004490092227F44120663C292227F45120663D22A
:1004590093227F46120663D294227F47120663D203
:020469009522DA
:100026007869616E67207A756F207A6875616E00EF
:10003600000000007869616E6720796F75207A6824
:1000460075616E000000000077616E67207169615E
:100056006E206A696E0000000000000077616E671E
:1000660020686F75207475690000000000000000AC
:1000760074696E67207A686900000000000000005D
:10008600000000006775616E206269206B6F6E6705
:10009600207469616F00000079752079696E206DA2
:1000A6006F20736869000000000000000000000077
:1000B600000000000000000000000000000000003A
:0800C6000201040516172F00CA
:10050300D2B57F017E007D007C00120606C2B57F56
:10051300017E007D007C00120606D2B57F017E00BD
:100523007D007C00120606C2A17F017E007D007C57
:1005330000120606D2A17F017E007D007C00020628
:0105430006B1
:1000CE007F0612069F7D357F171206947F0A7E00EB
:1000DE007D007C001206067F0612069F7D037F8937
:1000EE001206947F057E007D007C001206067D437D
:1000FE007FCF1206947F057E007D007C00120606DF
:10010E007D027FCB1206947D0A7F11120694E4FDC8
:10011E007F1E1206947D3F7F191206947D487F1B29
:10012E001206947D1F7F1D1206947F0A7E007D00AD
:10013E007C001206067D047FCD1206947F057E009C
:10014E007D007C00120606E4FD7FB91206947D4FF9
:0C015E007FCF1206947DFF7F6F02069495
:1003BA001200CEE4FD7FBD1206947D487F17120617
:1003CA00947F0A7E007D007C001206067D807F3CB9
:1003DA001206947D077F3E1206947DFF7F3812062F
:1003EA00947D077F3A120694E4FD7F401206947DBD
:1003FA00087F42120694E4FD7F441206947D087F2A
:0F040A00461206947F017E007D007C00020606EC
:10020600E4F508C2A87F2B12069F7820A607E4FD16
:100216007F29120694E4FD7F021206947820E630C8
:10022600E42D7FB212069FEF642170237FBF120672
:100236009FBF351B7FBA12069F8F08E508D394002F
:10024600400DE508D394045006781F761080047894
:100256001F7611E4FD7F2B120694E4FD7F1C120627
:1002660094E4FD7F29120694E4FD7F02120694E4CD
:10027600FD7F2B120694E4FD7FBA120694E4FD7FFF
:10028600BC1206947D017F08120694E4FD7F0812D5
:040296000694D2A850
:01029A002241
:10046B00E4F50AF50BF50A1206B07F327E007D002B
:10047B007C0012060612016AEF700280117F0A7E61
:10048B00007D007C0012060612029BEF7010120515
:10049B00037F327E007D007C001206068005750B03
:0E04AB00018009050AE50AC3940540BBAF0BAA
:0104B9002220
:1005B800E4F510F50F7FB212069FBF2105751001F3
:1005C80080147F0A7E007D007C00120606050FE578
:0805D8000FC3940A40DFAF10CD
:0105E00022F8
:0306B0000203BA88
:10029B00C2A87D307F351206947D097F1C1206940F
:1002AB007D207FBD1206947D017F081206947F018D
:1002BB007E007D007C00120606E4FD7F081206948A
:1002CB007F017E007D007C001206061205B8EF70E0
:1002DB0002FF227D0B7F1C1206947DFF7FB212065C
:1002EB00947F017E007D007C001206067D067F3721
:1002FB001206947F017E007D007C001206067D06AF
:10030B007F371206947F057E007D007C0012060667
:10031B007D107F29120694E4FD7FBD120694D2A8AE
:03032B007F01222D
:10016A00750D01E4F50C1205B8EF7005F50D0202E4
:10017A0003E50C9000C693FD7FC1120694E4FD7F4F
:10018A00C31206947D047F081206947F017E007DC7
:10019A00007C00120606E4FD7F081206947F017EA9
:1001AA00007D007C00120606E4F50EE50C75F014DD
:1001BA00A42426F582E43400F583E582250EF5822F
:1001CA00E43583F583E493FD600E7F0512069405FA
:1001DA000EE50EC3941440D3AD0E7FB91206947D7A
:1001EA00FF7FB21206947D047F37120694050CE550
:0B01FA000CC394085003020170AF0D0D
:0102050022D6
:0606AA007FC512069F222D
:0B069400908100EFF0908000EDF0225C
:0B069F00908100EFF0908000E0FF224F
:04068F00021C00B891
:10062A0053877F759850438E40538EFE53890F43EC
:0D063A008920AF1D8F8B8F8DC2ABD28E2219
:030023000206B31F
:0106B3003214
:0E066300C2ACC2998F993099FDC299D2AC22D7
:1005E1008B198A1A891BAB19AA1AA91B12057F60DC
:1005F10013051BE51B7002051A14F912057FFF1282
:05060100066380E22207
:0300000002032ECA
:0C032E00787FE4F6D8FD7581210203758C
:10057F00BB010689828A83E0225002E722BBFE027A
:09058F00E32289828A83E49322AD
:100598007401FF3395E0FEFDFC080808E6CF2FF64E
:1005A80018E6CE3EF618E6CD3DF618E6CC3CF62227
:10033A000204BAE493A3F8E493A34003F68001F21B
:10034A0008DFF48029E493A3F85407240CC8C333C4
:10035A00C4540F4420C8834004F456800146F6DF93
:10036A00E4800B0102040810204080900689E47E94
:10037A00019360BCA3FF543F30E509541FFEE49388
:10038A00A360010ECF54C025E060A840B8E493A34F
:10039A00FAE493A3F8E493A3C8C582C8CAC583CA7A
:1003AA00F0A3C8C582C8CAC583CADFE9DEE780BE32
:010693000066
:00000001FF
