:030000000214E403
:0C14E400787FE4F6D8FD75815602152BC8
:1006AE002E00303132333435363738393A207C2DFE
:1006BE002B2E3C2400F8FC04C424FCF800070F0980
:1006CE0008080F0700001018FCFC000000000808C6
:1006DE000F0F080800080C84C4643C18000E0F09A4
:1006EE0008080C0C00080C444444FCB800040C0828
:1006FE0008080F0700C0E0B098FCFC800000000066
:10070E00080F0F08007C7C4444C4C48400040C0809
:10071E0008080F0700F0F84C4444C08000070F088B
:10072E0008080F07000C0C0484C47C3C0000000F6A
:10073E000F00000000B8FC444444FCB800070F084A
:10074E0008080F0700387C444444FCF800000808F1
:10075E00080C07030000000030300000000000000D
:10076E00060600000000000000000000000000006F
:10077E00000000000000000000FF0000000000006C
:10078E0000FF000000000000000000000001010159
:10079E00010101010100000000FF00000001010144
:1007AE0001FF0101010000000000000000003030D8
:1007BE000000000000000080402010080000010230
:1007CE00040810200000000C12120C0000000000A3
:1007DE000000000000CEC0D0C7D6B5BEADCEB3B6B9
:1007EE00C8B9CCB6A8BDE2CEB4CAD5C1B20000021B
:1007FE0002020202FE0202020202FE00000040405D
:10080E00404040407F404040414241404000000057
:10081E0000BE2A2A2AEA2A2A2A3E000000000044A4
:10082E0042494949497F494949494140000090524E
:10083E003410FF10345280708F0808F80800829A26
:10084E00566322528E008040330C3340800020309D
:10085E00AC63201880824222121A26428000226740
:10086E0022121212404242427E4242424000203048
:10087E00AC63201800084848FF4848480800226723
:10088E002212121200020202FF0212221E000000A9
:10089E00FC242424FC252624FC242424040040309B
:1008AE008F80844C55252525554C8080800000FE78
:1008BE000212929292FE9292921202FE000000FF9B
:1008CE0040405F48484848485F4040FF0000100CD9
:1008DE004444444445C64444444444140C008040BB
:1008EE00201E2040407F4444444444404000201099
:1008FE00EC27F42CE00022920ED2221E0000806023
:10090E001F093F89FF000A0909FF090908008080B5
:10091E008888888888FF888888888880800020203A
:10092E001008040201FF010204081020200000FC40
:10093E000000FF004020D8171010F0101000000F1C
:10094E000402FF008040211608162140800040203E
:10095E00504C43444810A0708F0808F8080000441B
:0E096E00D841462038A74020130C33408000AB
:10188F00C10041000200410053004100010041002E
:02189F00000047
:10000300E4FDFCC3ED9FEC9E5015E4FBFA0BBB0033
:0F001300010AEB64704A70F50DBD00010C80E42A
:0100220022BB
:0818C1008F99D2002000FD22E6
:0618D100AE071218C1224F
:1017EE008B518A528953AB51AA52A9531203FC60F2
:1017FE00130553E5537002055214F91203FCFF1240
:05180E0018C180E22278
:10183700438920758DFD758BFDD28EC29FD29ED2B6
:081847009CD299D2ACD2AF2271
:0300230002157053
:0F157000C0E0C083C082C0D075D000C006C007E5
:10157F00309857C298AF99BF2410900000E0700ABE
:10158F0090000204F0900053E4F0900002E0640138
:10159F007045900001E0FE04F074032EF582E434F0
:1015AF0000F583EFF0640A702E900001E02403F53C
:1015BF0082E43400F583E4F0900002F090005304CD
:1015CF00F0900000F0A3E4F0800D309906C299C2AC
:0715DF00008004C298C299CC
:0D15E600D007D006D0D0D082D083D0E03224
:0816F000AB2BAA2CA92D7F04ED
:0816F8008F328B338A348935EF
:10170000E4F53612187A8E378F38E4FFEFC3953838
:10171000E5376480F8748098501FAB33AA34A9353C
:101720008F82758300120415B42C020536E536B598
:0B1730003204EF04FF220F80D37F0083
:01173B00228B
:100D7200E4F50BF50AF509F508F5107511018B126A
:100D82008A138914AB12AA13A9141203FCFF70036D
:100D9200020EFD24D2B40C004003020E48900DADA9
:100DA20075F003A4C58325F0C58373020E3D020EC0
:100DB20048020DD1020DDC020DE9020DF2020DFC1A
:100DC200020E06020E10020E1A020E27020E30E466
:100DD200F50FF50EF50DF50C806CE4F50FF50E75BB
:100DE2000D80750C3F805FE4F50FF50EF50D803038
:100DF200E4F50FF50E750D408026E4F50FF50E753E
:100E02000D80801CE4F50FF50E750DA08012E4F53F
:100E12000FF50E750DC08008E4F50FF50E750DE0A7
:100E2200750C408021E4F50FF50EF50D8008E4F510
:100E32000FF50E750D10750C41800BE4F50FF50ED4
:100E4200750D38750C42E4FFFE7D387C42AB0FAA6B
:100E52000EA90DA80C1202C4700DF510F511F515AE
:100E620075160104020EF1E511640145107026FFAA
:100E7200FE7D207C41AB0BAA0AA909A80812011E1B
:100E8200AB0FAA0EA90DA80C12002D8F0B8E0A8D86
:100E9200098C088058AB0BAA0AA909A808C000C08F
:100EA20001C002C003AE15AF167C007D0A120476A3
:100EB200AC06AD07EC120342A804A905AA06AB07CB
:100EC200AF0FAE0EAD0DAC0C120227D003D002D084
:100ED20001D00012002D8F0B8E0A8D098C08AE15E1
:100EE200AF167C007D0A1204768E158F16740125CA
:100EF20014F514E43513F513020D86AF0BAE0AADEB
:030F020009AC082F
:010F050022C9
:061786008B178A18891977
:10178C007F011216F88F1A151A85173585183685AC
:10179C001937753800851A397B017A00799A121637
:1017AC009E749A251AF582E43400F583E4F07B01EB
:0717BC007A00799A120D7208
:0117C3002203
:100F0600E4F535F534F533F532F53A753B018B3CAE
:100F16008A3D893EAB3CAA3DA93E1203FCFF700305
:100F260002109124D2B40C004003020FDC900F4152
:100F360075F003A4C58325F0C58373020FD1020F94
:100F4600DC020F65020F70020F7D020F86020F9002
:100F5600020F9A020FA4020FAE020FBB020FC4E4E7
:100F6600F539F538F537F536806CE4F539F5387529
:100F7600378075363F805FE4F539F538F5378030D0
:100F8600E4F539F5387537408026E4F539F53875D6
:100F96003780801CE4F539F5387537A08012E4F502
:100FA60039F5387537C08008E4F539F5387537E016
:100FB6007536408021E4F539F538F5378008E4F5D3
:100FC60039F538753710753641800BE4F539F53843
:100FD600753738753642E4FFFE7D387C42AB39AA58
:100FE60038A937A8361202C4700DF53AF53BF53F1D
:100FF60075400104021085E53B6401453A7026FF01
:10100600FE7D207C41AB35AA34A933A83212011EDD
:10101600AB39AA38A937A83612002D8F358E348DF4
:10102600338C328058AB35AA34A933A832C000C0FD
:1010360001C002C003AE3FAF407C007D0A120476B9
:10104600AC06AD07EC120342A804A905AA06AB0735
:10105600AF39AE38AD37AC36120227D003D002D046
:1010660001D00012002D8F358E348D338C32AE3F79
:10107600AF407C007D0A1204768E3F8F40740125B6
:101086003EF53EE4353DF53D020F1AAF35AE34ADC3
:0310960033AC3246
:011099002234
:0C173C007E00AB2BE52D2FF9EE352CFACA
:061748008B2E8A2F893070
:10174E007F011216F88F311531852E35852F36858E
:10175E0030377538008531397B017A0079A412163D
:10176E009E74A42531F582E43400F583E4F07B0108
:07177E007A0079A4120F06A6
:011785002241
:100BCF008B548A55895690000AE475F0011205AED0
:100BDF0090000A12053ED3943BE5F0648094804068
:100BEF0043AB54AA55A95690000AE4F5F01205FB41
:100BFF00900008E475F0011205AE90000812053E52
:100C0F00D3943BE5F0648094804019AB54AA55A966
:100C1F0056900008E4F5F01205FB900006E475F01D
:100C2F00011205AEAB54AA55A956900006E475F013
:100C3F00081205AE90000612053ED39417E5F06436
:100C4F008094805003020D71AB54AA55A9569000A1
:100C5F000674FF75F0E81205AE900004E475F0011C
:100C6F001205AE90000212053EFFAEF064024E6018
:100C7F0018EF64044E6012EF64064E600CEF6409C7
:100C8F004E6006EF640B4E7019AB54AA55A95690DF
:100C9F00000412053ED3941EE5F064809480402D2D
:100CAF008017AB54AA55A95690000412053ED39451
:100CBF001FE5F0648094804014900004E475F00107
:100CCF001205FB900002E475F0011205AEAB54AAB9
:100CDF0055A956120513FFAEF07C007D041204DDFA
:100CEF00ED4C701F90000412053ED3941DE5F06487
:100CFF00809480404490000212053E640245F070DB
:100D0F00388023AB54AA55A95690000412053ED340
:100D1F00941CE5F064809480401F90000212053E01
:100D2F00640245F0701390000475F0011205FB90FA
:100D3F000002E475F0011205AEAB54AA55A9569006
:100D4F00000212053ED3940CE5F0648094804012AB
:100D5F0090000274FF75F0F41205AEE475F0011205
:030D6F00057622E4
:04116D008E418F42DE
:10117100E4F54BF54C8B438A448945C3E542940A17
:10118100E5416480948050260545E545700205449B
:1011910014F974301204422542FFAB430545E5457D
:1011A100AA447002054414F9EF1204428075D3E594
:1011B100429400E541648094804034AE41AF427C6A
:1011C100007D0A1204DDAB05AA04AE41AF427C00EA
:1011D1007D0A1204DD8E418F42AF03EF2430FF05FB
:1011E1004CE54C7002054B142446F8A60780BFE578
:1011F1004C154C7002154BC3E54B64809480402321
:101201007446254CF8E6FFAB430545E545AA447015
:1012110002054414F9EF120442E54C154C70021515
:0D1221004B80D4AB43AA44A945E40204422B
:10097C008B2B8A2C892D900004120415F5277F02ED
:10098C001216F8AB2BAA2CA92D8F8275830012049A
:10099C0015FFE52764476003020BCBEF642C700353
:1009AC00020BCB7F021216F87E00E52D2FF9EE35E7
:1009BC002C852B28F529892AAB28FA1203FCAB24A9
:1009CC00AA25A926900024120454AB28AA29A92AE6
:1009DC00900001120415AB24AA25A926900025121B
:1009EC0004549000267424120454AB28AA29A92A72
:1009FC00900002120415AB24AA25A92690002712F8
:100A0C000454AB28AA29A92A900003120415AB247C
:100A1C00AA25A926900028120454AB28AA29A92A91
:100A2C00900004120415AB24AA25A92690002912C3
:100A3C000454AB28AA29A92A900005120415AB244A
:100A4C00AA25A92690002A120454AB28AA29A92A5F
:100A5C00900006120415AB24AA25A92690002B128F
:100A6C000454AB28AA29A92A900007120415AB2418
:100A7C00AA25A92690002C12045490002DE41204EF
:100A8C00541216F07E00E52D2FF9EE352C852B280F
:100A9C00F529892AAB28FA1203FCAB24AA25A9262E
:100AAC0090002E120454AB28AA29A92A90000112F6
:100ABC000415AB24AA25A92690002F120454AB28A8
:100ACC00AA29A92A900002120415AB24AA25A9264A
:100ADC009000301204549000317424120454AB284A
:100AEC00AA29A92A900003120415AB24AA25A92629
:100AFC00900032120454AB28AA29A92A900004129F
:100B0C000415AB24AA25A926900033120454AB2853
:100B1C00AA29A92A900005120415AB24AA25A926F6
:100B2C00900034120454AB28AA29A92A900006126A
:100B3C000415AB24AA25A926900035120454AB2821
:100B4C00AA29A92A900007120415AB24AA25A926C4
:100B5C00900036120454900037E4120454AB2BAAC4
:100B6C002CA92D7F021216F812173CAB24AA25A92A
:100B7C00269000041206501216F012173CAB24AA51
:100B8C0025A926120636AB2BAA2CA92D7F061216E8
:100B9C00F812173CAB24AA25A92690001412065073
:100BAC00AB2BAA2CA92D7F071216F812173CAB24DD
:100BBC00AA25A9269000181206507E007F0122E477
:020BCC00FEFF2A
:010BCE002204
:0818C9007580FFC290D291224C
:07186500E52724B8252EFF42
:0E186C001218C9C290C2918F80D292C29222ED
:0E18B3001218C9D290C2918F80D292C2922296
:1018A2007580FFC290D2917F3F12186C7FC00218E0
:0118B2006CC9
:061445008F278D288B2982
:10144B00E528C394405004C201800874C02528F5D8
:10145B0028D201E4F52EE52EC3952A507B300106E8
:10146B00C294D2938004D294C293121865E52824B7
:10147B0040FF12186CE4F52FE52FC395295054E566
:10148B002FFD7C002528FFE433FEC3EF9440EE6470
:10149B00809480500CE52E8529F0A42DF582EC80EC
:1014AB001D20012BC294D293121865E528252FFF1E
:1014BB0012186CE52E8529F0A4252FF582E435F062
:1014CB00F583AB2BAA2CA92D120415FF1218B3050B
:0814DB002F80A5052E0214610B
:0114E30022E6
:10184F00E4FFEF9006B093FE600B1203FCFDEE6D0C
:05185F0060030F80EDA5
:011864002261
:1017C400E4FFEF9007E393FE601B1203FCFDEEB50C
:1017D400050F900001120415FEEF9007E4936E606C
:0917E400040F0F80DDEFC313FFB9
:0117ED0022D9
:0912EF00FD7BFF7A0679AEAF4DDC
:0A12F8008F218D228B238A24892583
:10130200E4F526AB23AA24A925852682758300123B
:101312000415FF700302139CC3948050337E00E9CE
:101322002526F9EE3AFA12184FEF75F010A424C3ED
:10133200F9740635F0752BFFF52C892D752A027B81
:1013420008AD22AF2112144574082522F5228037F8
:10135200AB237E00E5252526F9EE3524FA1217C4C3
:10136200EF75F020A424FCF9740735F0752BFFF516
:101372002C892D752A027B10AD22AF2112144574DF
:10138200102522F5220526E522D394784007E4F5BC
:0A139200220521052105260213059E
:01139C00222E
:031813002408FDA9
:101816008F258D26EB75F010A424C3F9740635F0D8
:10182600752BFFF52C892D752A027B08AF2502142E
:01183600456C
:1015F3008F218D228A238B24AE23AF247C007D642C
:101603001204887C007D0A120488AB05AD22AF2149
:10161300121816AE23AF247C007D0A1204887C00C6
:101623007D0A120488AB05E522AF21121813E522C7
:101633002410FDC005AE23AF247C007D0A1204886C
:09164300AB05D005AF2102181619
:10139D008F1B8D1C8A1D8B1EAE1DAF1E7C277D10D5
:1013AD001204887C007D0A120488AB05AD1CAF1BAE
:1013BD00121816AE1DAF1E7C037DE81204887C004A
:1013CD007D0A120488AB05E51C2408FDAF1B12181D
:1013DD0016AE1DAF1E7C007D641204887C007D0A54
:1013ED00120488AB05E51C2410FDAF1B121816E581
:1013FD001C2418FD7BFF7A0679AEAF1B1212F8AED6
:10140D001DAF1E7C007D0A1204887C007D0A12042B
:10141D0088AB05E51C2420FDAF1B121816E51C2416
:10142D0028FDC005AE1DAF1E7C007D0A120488ABE1
:08143D0005D005AF1B021816D3
:10122E008F4D8D4E8A4F8B50AE4FAF507C277D1019
:10123E001204887C007D0A120488AB05AD4EAF4DBA
:10124E00121816AE4FAF507C037DE81204887C0056
:10125E007D0A120488AB05E54EAF4D121813E54E0C
:10126E0024101212EFAE4FAF507C037DE8120488AB
:10127E007C007D0A120488AB05E54E2418FDAF4DA7
:10128E00121816AE4FAF507C007D641204887C009D
:10129E007D0A120488AB05E54E2420FDAF4D1218D1
:1012AE0016E54E24281212EFAE4FAF507C007D0A89
:1012BE001204887C007D0A120488AB05E54E2430AA
:1012CE00FDAF4D121816E54E2438FDC005AE4FAFDA
:1012DE00507C007D0A120488AB05D005AF4D021874
:0112EE0016E9
:10164C00CEC0D0C7D6B53A20202020202020202084
:10165C00002020202020202020202020202020209E
:10166C002000CEB3B6C83A202020202020202020F5
:10167C00202000BEADB6C83A2020202020202020FB
:10168C0020202000B9CCB6A8BDE200CEB4CAD5C18A
:02169C00B2009A
:10109A001218371218A27BFF7A16794CE4FDFF1258
:1010AA0012F87BFF7A16795DE4FD7F021212F87B53
:1010BA00FF7A16796EE4FD7F041212F87BFF7A1626
:1010CA00797FE4FD7F061212F8900053E070030264
:1010DA0011637524017525007526547B017A007900
:1010EA000312097CEF4E606CE4900000F09000530C
:1010FA00F090006CE0FCA3E0FDA3E0FEA3E0FF1289
:10110A00037BAB07AA067D38E4FF1215F3E4FFFE62
:10111A007D707C41900068E0F8A3E0F9A3E0FAA3AF
:10112A00E0FB1202C47BFF70067A16799080057A7A
:10113A00167997E4FD7F021212F87B017A0079781A
:10114A007D287F041212F87B017A0079827D287F3C
:10115A00061212F8E4900053F07F647E0012000336
:03116A000210D39D
:100026000203E7E86480F8E933E83360110460F01E
:10003600ED33EC337009E8FCE9FDEAFEEBFF220440
:1000460060DED3EB9FEA9EE99DE8C2E78CF0C2F73B
:1000560095F0400CE8CCF8E9CDF9EACEFAEBCFFB07
:100066001203B285D0F05804700320D5B3E80470AB
:10007600075002B2D50203F192D5EC0460F7E4CC46
:10008600C0E0C398F8603B94186008400DD0E0FBD0
:100096000203C9E4FBFAC9FC8028E830E406E4C997
:1000A600FBE4CAFCE830E305E4C9CACBFCE8540724
:1000B6006010F8C3E913F9EA13FAEB13FBEC13FC2F
:1000C600D8F130F52FC3E49CFCEF9BFFEE9AFEEDD2
:1000D60099FDD0E0FBEF4E4D4C701222DB0302037C
:1000E600EEEC2CFCEF33FFEE33FEED33FDED30E7A7
:1000F600EB0203C9EF2BFFEE3AFEED39FDD0E0FB34
:1001060050130BBB00030203F1ED13FDEE13FEEFDC
:0801160013FFEC13FC0203C906
:10011E00EC4D6011E8497017ED33EC3304600DE4DB
:10012E00FCFFFEFD22E933E8330470F80203E71208
:10013E0003B258046009E4CC248150062850090209
:10014E0003F12840030203EEC0E0EB4A7044B9808D
:10015E0006D0E0FB0203DDEF4E701CBD8008EBFF06
:10016E00EAFEE9FD80EBE98DF0A4FEE5F002020760
:10017E00E9CDF9EAFEEBFFEF89F0A4FCE5F0CE89BC
:10018E00F0A42EFFE435F0CD89F0A42DFEE435F079
:10019E008067EF4E7005BD80D780C3EF8BF0A4ACA7
:1001AE00F0EE8BF0A42CFCE435F0F8EF8AF0A42CE2
:1001BE00E5F038FCE433CB8DF0A42CFCE5F03BF8F5
:1001CE00EE8AF0A42CFCE5F038F8E433CF89F0A4E5
:1001DE002CFCE5F038CF3400CE89F0A42FFFE5F0EB
:1001EE003EFEE433C98DF0A42EFEE5F039CD8AF043
:1001FE00A42FFFE5F03EFEE43DFD33D0E0FB5007BB
:10020E000BBB000F0203F1EC2CFCEF33FFEE33FEC1
:06021E00ED33FD0203C9EF
:100224000203F1EC5D046005E8590470030203E77E
:100234001203B2580460F6EC4860F2EC7004FDFE60
:10024400FF22C860DB2481C85009C39860025006AD
:100254000203EE9850CAF582E9294B4A7005AB8235
:100264000203DD75F0007C1A7880C3EF9BEE9AEDF3
:1002740099400DC3EF9BFFEE9AFEED99FDE842F025
:10028400DC23ACF0D0E0FFD0E0FED0E0FDAB822078
:10029400E7101BEB60BAEC2CFCEF33FFEE33FEED02
:1002A40033FD0203C9E803F830E705C0F075F00038
:1002B400EF2FFFEE33FEED33FD40B830E7C280AAE6
:1002C40074F8CC6480CCC86480C8F58204604FC3E1
:1002D400EB9FF5F0EA9E42F0E99D42F0E89C45F080
:1002E400603C501DE5825FFFE582D313CB5BCBF40A
:1002F4002B5582FB50280ABA002409B90020088033
:100304001DE5825BFBE582D313CF5FCFF4C3132FCC
:100314005582FF50090EBE00050DBD00010CC3EB54
:100324009FF5F0EA9E42F0E99D42F0E89C45F060BA
:0903340007CC4820E701B3EC22DC
:10033D0075F020800E75F010800575F0087D007E3B
:10034D00007F003392D530D503120628EC334010D0
:10035D00EF33FFEE33FEED33FDEC33FCD5F0ED2244
:0E036D00E5F0247EA2D513CC92E7CDCEFF2280
:10037B00EDD2E7CD33EC3392D524814006E4FFFE7A
:10038B00FDFC22FCE4CFCECDCC24E0501174FF80D9
:10039B00EDC3CC13CCCD13CDCE13CECF13CF047076
:0703AB00F030D5DE02062848
:1003B200E9D2E7C933E833F892D5EDD2E7CD33EC91
:0703C20033FC5002B2D5220A
:1003C900EC30E7100FBF000C0EBE00080DBD000495
:1003D9000BEB6014A2D5EB13FCED92E7FD2274FF41
:1003E900FCFDFEFF22E480F8A2D574FF13FC7D809A
:0303F900E480EFAE
:1014F00002109AE493A3F8E493A34003F68001F268
:1015000008DFF48029E493A3F85407240CC8C333FC
:10151000C4540F4420C8834004F456800146F6DFCB
:10152000E4800B010204081020408090188FE47EB4
:10153000019360BCA3FF543F30E509541FFEE493C0
:10154000A360010ECF54C025E060A840B8E493A387
:10155000FAE493A3F8E493A3C8C582C8CAC583CAB2
:10156000F0A3C8C582C8CAC583CADFE9DEE780BE6A
:0118A1000046
:1003FC00BB010689828A83E0225002E722BBFE02FF
:09040C00E32289828A83E4932231
:10041500BB010CE58229F582E5833AF583E022509C
:1004250006E92582F8E622BBFE06E92582F8E222E6
:0D043500E58229F582E5833AF583E4932200
:10044200BB010689828A83F0225002F722BBFE0199
:02045200F32293
:10045400F8BB010DE58229F582E5833AF583E8F0DE
:10046400225006E92582C8F622BBFE05E92582C88A
:02047400F22272
:10047600EF8DF0A4A8F0CF8CF0A428CE8DF0A42E9A
:02048600FE2254
:10048800BC000BBE0029EF8DF084FFADF022E4CC58
:10049800F875F008EF2FFFEE33FEEC33FCEE9DEC21
:1004A800984005FCEE9DFE0FD5F0E9E4CEFD22ED67
:1004B800F8F5F0EE8420D21CFEADF075F008EF2FB1
:1004C800FFED33FD4007985006D5F0F222C398FDA2
:0504D8000FD5F0EA223F
:1004DD00C2D5EC30E709B2D5E4C39DFDE49CFCEE3A
:1004ED0030E715B2D5E4C39FFFE49EFE120488C326
:1004FD00E49DFDE49CFC800312048830D507C3E421
:06050D009FFFE49EFE22A8
:10051300BB010A89828A83E0F5F0A3E022500687B3
:10052300F009E71922BBFE07E3F5F009E319228975
:0B053300828A83E493F5F074019322A8
:10053E00BB0110E58229F582E5833AF583E0F5F0FB
:10054E00A3E0225009E92582F886F008E622BBFED8
:10055E000AE92582F8E2F5F008E222E5832AF5831E
:08056E00E993F5F0A3E99322E3
:10057600BB010789828A83020674500B09C5F027DE
:10058600F7C5F01937F722BBFE0D09F8E325F0F39E
:10059600C5F019E338F322F889828A83740193251A
:0805A600F0C5F0F8E4933822DF
:1005AE00BB010DC58229C582C5833AC58302067477
:1005BE005011C58229F808E5F026F618F5F0E58207
:1005CE0036F622BBFE11C58229F808E225F0F5F0B9
:1005DE00F218E23582F222F8E58229F582E5832AC5
:0D05EE00F58374019325F0F5F0E4933822B5
:1005FB00F8BB0111E58229F582E5833AF583E8F032
:10060B00E5F0A3F0225009E92582C8F608A6F022EE
:0D061B00BBFE09E92582C8F2E5F008F222D5
:0E062800C3E49FFFE49EFEE49DFDE49CFC22E3
:10063600BB010789828A830206965005E9F80206FD
:0A0646008ABBFE05E9F80206A222B5
:10065000BB010DE58229F582E5833AF58302069612
:100660005007E92582F802068ABBFE07E92582F8D1
:040670000206A222BA
:10169E008B328A338934E4F53AF53BE5391539AEA8
:1016AE0038700215384E6033AB35AA36A93712039F
:1016BE00FCFFAB32AA33A934053BE53BAC3A7002D2
:1016CE00053A14F5828C83EF120454EF60CD740149
:1016DE002537F537E43536F53680C0AB32AA33A957
:0216EE003422A4
:10187A00E4FFFE1203FC600C0FEF70010E09E97021
:05188A00F20A80EF22CC
:10067400C5F0F8A3E028F0C5F0F8E5821582700211
:060684001583E038F022AE
:0C068A00ECF608EDF608EEF608EFF6229C
:0C069600ECF0A3EDF0A3EEF0A3EFF022D7
:0C06A200ECF208EDF208EEF208EFF22294
:00000001FF
