:0200030002D623
:0200050003B640
:0C041F0068656C6C6F20776F726C640075
:1002D60012040B7BFF7A04791FE4FDFF1203547F9F
:1002E60001120180C2A0E4FBFA7D647F02120209BA
:1002F600D2A0E4FBFA7D647F021202091200898013
:01030600E313
:1003B600C2A1E4FBFA7D647F02120209D2A1E4FB2A
:0D03C600FA7D647F0212020912008980E3B3
:10037600E4FDFCC3ED9FEC9E5015E4FBFA0BBB00BD
:10038600010AEB64704A70F50DBD00010C80E42291
:1003D300C2A68F807F037E001203E4D2A77F197E1B
:0103E3000019
:0B03E400EF1FAC0670011E4C70F622EB
:0A043700C2A7C2A51203D3C2A72278
:100396007D0A7C00AF03AE021202817C007D0A1248
:0603A6000281ED2430FF8E
:0A03AC00C2A7D2A51203D3C2A722F4
:10033000EF7005ED24808003ED24C0FF1204371216
:100340000396AE02AF037C007D0A120281ED2430D9
:04035000FF0203ACF9
:10030700EF7005ED24808003ED24C0FF1204377DD4
:1003170064120398120396AE02AF037C007D0A12A3
:090327000281ED2430FF0203AC59
:10035400EF7005ED24808003ED24C0FF12043712F2
:100364000268FF600C1203AC740129F9E43AFA80C4
:02037400EE2277
:1003EF00EF7005ED24808003ED24C0FF120437BBAE
:0C03FF0001047F0F80027F0C12043722E3
:10040B007F381204377F381204377F0C1204377F82
:04041B00060204379A
:03000B00020013DD
:10000E00C2AF80FE3212001285D00B75D008AAE066
:10001E00C28CE58A24F7F58AE58C34D8F58CD28C1F
:10002E00EC2413F8E6BC010274FFC39581B41400EE
:10003E0040CE7902780E16E608700BC2AFE630E1BC
:10004E00034418F6D2AF08D9EDEA8BD03000012266
:10005E00D50DFCC0E0C0D0C0F0C083C082C000C0CF
:10006E0001C002C003C004C005C006C007E50C23D2
:10007E00240FF87440C2AF46F6D2AFD200E50CFFA3
:10008E0023240FF80F0808BF02047F00780FE63014
:10009E00E4F200E50CC39F5020050C7412250CF8F9
:1000AE00E6FDA68108E6AE0CBE010274FFCDF8E8AF
:1000BE006D60E008E6C0E080F6E50CD39F4027E5D2
:1000CE000C2413F8E6AE0CBE010274FFFD18E6CD4B
:1000DE00F8E5816D6006D0E0F61880F5E50C241287
:1000EE00C8F6150C80D3750D05E50C23240FF87F8B
:1000FE0004C2AFE610E61E30E00310E20C7F0030C3
:05010E00E10730E304ED
:100113007F0854F4547CC6D2AF54804207C20022F5
:10012300F6D2AFD007D006D005D004D003D002D08A
:1001330001D000D082D083D0F0D0D0D0E0C2002252
:100143007812A68174016006FF0876FFDFFB7F0249
:10015300E4780EF608F608DFFA780F76309000039D
:10016300740193C0E0E493C0E0750D054389017504
:0D0173008AF0758CD8D28CD2AFD2A92201AF
:10018000EFD3940140037FFF22740F2F2FF8E62056
:10019000E5F4C2AFE64430F6D2AFAE0CEEC39F50EA
:1001A000210E74122EF8E6F908E618BE010274FF5B
:1001B000FDED69600909E71919F7090980F31616B9
:1001C00080DAEED39F400405810581EED39F402263
:1001D00074122EF808E6F9EEB50C02A9811806068D
:1001E000E6FDED6960091919E70909F71980F31EA1
:1001F00080D9EF2412F8E604F8EF2F04900003935F
:09020000F608EF2F93F67F0022AF
:100209008FF0E4FFFEE50C23240EF8C2A930F70DA8
:100219007F08E6600B2DF660325030800730F1061A
:10022900EDF660277E020830F010C2AFE610E72530
:100239000E30E20CD2AF7F048014C2AFE610E7158E
:1002490054EC4EF6D2AFD2A90200897F0808EF44D8
:0F02590083F4C2AF56C6D2AFD2A954804FFF2252
:0300000002042BCC
:0C042B00787FE4F6D8FD758120020143C3
:10026800BB010689828A83E0225002E722BBFE0294
:09027800E32289828A83E49322C7
:10028100BC000BBE0029EF8DF084FFADF022E4CC61
:10029100F875F008EF2FFFEE33FEEC33FCEE9DEC2A
:1002A100984005FCEE9DFE0FD5F0E9E4CEFD22ED70
:1002B100F8F5F0EE8420D21CFEADF075F008EF2FBA
:1002C100FFED33FD4007985006D5F0F222C398FDAB
:0502D1000FD5F0EA2248
:00000001FF
